{
  "contractName": "Bid",
  "abi": [
    {
      "constant": true,
      "inputs": [],
      "name": "exists",
      "outputs": [
        {
          "name": "",
          "type": "bool"
        }
      ],
      "payable": false,
      "stateMutability": "view",
      "type": "function"
    },
    {
      "constant": true,
      "inputs": [],
      "name": "owner",
      "outputs": [
        {
          "name": "",
          "type": "address"
        }
      ],
      "payable": false,
      "stateMutability": "view",
      "type": "function"
    },
    {
      "constant": true,
      "inputs": [],
      "name": "amount",
      "outputs": [
        {
          "name": "",
          "type": "uint256"
        }
      ],
      "payable": false,
      "stateMutability": "view",
      "type": "function"
    },
    {
      "constant": true,
      "inputs": [],
      "name": "state",
      "outputs": [
        {
          "name": "",
          "type": "uint8"
        }
      ],
      "payable": false,
      "stateMutability": "view",
      "type": "function"
    },
    {
      "inputs": [
        {
          "name": "_amount",
          "type": "uint256"
        },
        {
          "name": "_owner",
          "type": "address"
        }
      ],
      "payable": false,
      "stateMutability": "nonpayable",
      "type": "constructor"
    },
    {
      "constant": false,
      "inputs": [
        {
          "name": "_exists",
          "type": "bool"
        }
      ],
      "name": "setBidExists",
      "outputs": [],
      "payable": false,
      "stateMutability": "nonpayable",
      "type": "function"
    },
    {
      "constant": true,
      "inputs": [],
      "name": "getState",
      "outputs": [
        {
          "name": "",
          "type": "uint8"
        }
      ],
      "payable": false,
      "stateMutability": "view",
      "type": "function"
    },
    {
      "constant": false,
      "inputs": [
        {
          "name": "_state",
          "type": "uint8"
        }
      ],
      "name": "setState",
      "outputs": [],
      "payable": false,
      "stateMutability": "nonpayable",
      "type": "function"
    }
  ],
  "bytecode": "0x608060405234801561001057600080fd5b506040516040806103b383398101806040528101908080519060200190929190805190602001909291905050508160008190555080600160026101000a81548173ffffffffffffffffffffffffffffffffffffffff021916908373ffffffffffffffffffffffffffffffffffffffff16021790555060018060006101000a81548160ff021916908360048111156100a357fe5b021790555060018060016101000a81548160ff02191690831515021790555050506102e0806100d36000396000f300608060405260043610610083576000357c0100000000000000000000000000000000000000000000000000000000900463ffffffff1680631865c57d14610088578063267c4ae4146100c157806356de96db146100f0578063592056a8146101205780638da5cb5b1461014f578063aa8c217c146101a6578063c19d93fb146101d1575b600080fd5b34801561009457600080fd5b5061009d61020a565b604051808260048111156100ad57fe5b60ff16815260200191505060405180910390f35b3480156100cd57600080fd5b506100d6610221565b604051808215151515815260200191505060405180910390f35b3480156100fc57600080fd5b5061011e600480360381019080803560ff169060200190929190505050610233565b005b34801561012c57600080fd5b5061014d600480360381019080803515159060200190929190505050610259565b005b34801561015b57600080fd5b50610164610275565b604051808273ffffffffffffffffffffffffffffffffffffffff1673ffffffffffffffffffffffffffffffffffffffff16815260200191505060405180910390f35b3480156101b257600080fd5b506101bb61029b565b6040518082815260200191505060405180910390f35b3480156101dd57600080fd5b506101e66102a1565b604051808260048111156101f657fe5b60ff16815260200191505060405180910390f35b6000600160009054906101000a900460ff16905090565b6001809054906101000a900460ff1681565b80600160006101000a81548160ff0219169083600481111561025157fe5b021790555050565b806001806101000a81548160ff02191690831515021790555050565b600160029054906101000a900473ffffffffffffffffffffffffffffffffffffffff1681565b60005481565b600160009054906101000a900460ff16815600a165627a7a723058203496d5af80f78767161fd9fc317645e0f9a52e4ee333343c2376c41df275a0c00029",
  "source": "pragma solidity ^0.4.18;\n\nimport './Library.sol';\n\n\ncontract Bid {\n    \n using Library for Library.BidStates;\n  uint public amount;\n  Library.BidStates public state;\n  bool public exists;\n  address public owner ;\n\n  function Bid(uint _amount, address _owner) public {\n    amount = _amount;\n    owner = _owner;\n    state = Library.BidStates.OPEN;\n    exists = true;\n  }\n  \n  \n  function setBidExists(bool _exists) public {\n    exists = _exists;\n  }\n\n  function getState() public constant returns (Library.BidStates) {\n    return state;\n  }\n\n  function setState(Library.BidStates _state) public {\n    state = _state;\n  }\n}\n",
  "sourcePath": "/Users/hitesh/myworkspace/dump/dns-dapp/contracts/Bid.sol",
  "compiler": {
    "name": "solc",
    "version": "0.4.25+commit.59dbf8f1.Emscripten.clang"
  },
  "schemaVersion": "2.0.2",
  "updatedAt": "2019-01-12T10:24:30.915Z"
}