{
  "contractName": "Bid",
  "abi": [
    {
      "constant": true,
      "inputs": [],
      "name": "exists",
      "outputs": [
        {
          "name": "",
          "type": "bool"
        }
      ],
      "payable": false,
      "stateMutability": "view",
      "type": "function"
    },
    {
      "constant": true,
      "inputs": [],
      "name": "owner",
      "outputs": [
        {
          "name": "",
          "type": "address"
        }
      ],
      "payable": false,
      "stateMutability": "view",
      "type": "function"
    },
    {
      "constant": true,
      "inputs": [],
      "name": "amount",
      "outputs": [
        {
          "name": "",
          "type": "uint256"
        }
      ],
      "payable": false,
      "stateMutability": "view",
      "type": "function"
    },
    {
      "constant": true,
      "inputs": [],
      "name": "state",
      "outputs": [
        {
          "name": "",
          "type": "uint8"
        }
      ],
      "payable": false,
      "stateMutability": "view",
      "type": "function"
    },
    {
      "inputs": [
        {
          "name": "_amount",
          "type": "uint256"
        },
        {
          "name": "_owner",
          "type": "address"
        }
      ],
      "payable": false,
      "stateMutability": "nonpayable",
      "type": "constructor"
    },
    {
      "constant": false,
      "inputs": [
        {
          "name": "_exists",
          "type": "bool"
        }
      ],
      "name": "setBidExists",
      "outputs": [],
      "payable": false,
      "stateMutability": "nonpayable",
      "type": "function"
    },
    {
      "constant": true,
      "inputs": [],
      "name": "getState",
      "outputs": [
        {
          "name": "",
          "type": "uint8"
        }
      ],
      "payable": false,
      "stateMutability": "view",
      "type": "function"
    },
    {
      "constant": false,
      "inputs": [
        {
          "name": "_state",
          "type": "uint8"
        }
      ],
      "name": "setState",
      "outputs": [],
      "payable": false,
      "stateMutability": "nonpayable",
      "type": "function"
    }
  ],
  "bytecode": "0x6060604052341561000f57600080fd5b60405160408061038c833981016040528080519060200190919080519060200190919050508160008190555080600160026101000a81548173ffffffffffffffffffffffffffffffffffffffff021916908373ffffffffffffffffffffffffffffffffffffffff16021790555060018060006101000a81548160ff0219169083600481111561009a57fe5b021790555060018060016101000a81548160ff02191690831515021790555050506102c2806100ca6000396000f300606060405260043610610083576000357c0100000000000000000000000000000000000000000000000000000000900463ffffffff1680631865c57d14610088578063267c4ae4146100bf57806356de96db146100ec578063592056a8146101125780638da5cb5b14610137578063aa8c217c1461018c578063c19d93fb146101b5575b600080fd5b341561009357600080fd5b61009b6101ec565b604051808260048111156100ab57fe5b60ff16815260200191505060405180910390f35b34156100ca57600080fd5b6100d2610203565b604051808215151515815260200191505060405180910390f35b34156100f757600080fd5b610110600480803560ff16906020019091905050610215565b005b341561011d57600080fd5b6101356004808035151590602001909190505061023b565b005b341561014257600080fd5b61014a610257565b604051808273ffffffffffffffffffffffffffffffffffffffff1673ffffffffffffffffffffffffffffffffffffffff16815260200191505060405180910390f35b341561019757600080fd5b61019f61027d565b6040518082815260200191505060405180910390f35b34156101c057600080fd5b6101c8610283565b604051808260048111156101d857fe5b60ff16815260200191505060405180910390f35b6000600160009054906101000a900460ff16905090565b6001809054906101000a900460ff1681565b80600160006101000a81548160ff0219169083600481111561023357fe5b021790555050565b806001806101000a81548160ff02191690831515021790555050565b600160029054906101000a900473ffffffffffffffffffffffffffffffffffffffff1681565b60005481565b600160009054906101000a900460ff16815600a165627a7a7230582033885f341c39ea59c81e82660e7004a07a4da8e4ed3d6f6d9816cb23d98b5bf60029",
  "source": "pragma solidity ^0.4.18;\r\n\r\nimport './Library.sol';\r\n\r\n\r\ncontract Bid {\r\n    \r\n using Library for Library.BidStates;\r\n  uint public amount;\r\n  Library.BidStates public state;\r\n  bool public exists;\r\n  address public owner ;\r\n\r\n  function Bid(uint _amount, address _owner) public {\r\n    amount = _amount;\r\n    owner = _owner;\r\n    state = Library.BidStates.OPEN;\r\n    exists = true;\r\n  }\r\n  \r\n  \r\n  function setBidExists(bool _exists) public {\r\n    exists = _exists;\r\n  }\r\n\r\n  function getState() public constant returns (Library.BidStates) {\r\n    return state;\r\n  }\r\n\r\n  function setState(Library.BidStates _state) public {\r\n    state = _state;\r\n  }\r\n}\r\n",
  "sourcePath": "C:\\truffle\\truffle_angular\\contracts\\Bid.sol",
  "compiler": {
    "name": "solc",
    "version": "0.4.19+commit.c4cbbb05.Emscripten.clang"
  },
  "schemaVersion": "1.0.1",
  "updatedAt": "2018-02-10T17:09:11.010Z"
}