{
  "contractName": "BidContainer",
  "abi": [
    {
      "constant": true,
      "inputs": [],
      "name": "topBidder",
      "outputs": [
        {
          "name": "",
          "type": "address"
        }
      ],
      "payable": false,
      "stateMutability": "view",
      "type": "function"
    },
    {
      "constant": true,
      "inputs": [
        {
          "name": "",
          "type": "address"
        }
      ],
      "name": "bidMap",
      "outputs": [
        {
          "name": "",
          "type": "address"
        }
      ],
      "payable": false,
      "stateMutability": "view",
      "type": "function"
    },
    {
      "constant": true,
      "inputs": [
        {
          "name": "",
          "type": "address"
        }
      ],
      "name": "balancesMap",
      "outputs": [
        {
          "name": "",
          "type": "uint256"
        }
      ],
      "payable": false,
      "stateMutability": "view",
      "type": "function"
    },
    {
      "constant": true,
      "inputs": [],
      "name": "currentPrice",
      "outputs": [
        {
          "name": "",
          "type": "uint256"
        }
      ],
      "payable": false,
      "stateMutability": "view",
      "type": "function"
    },
    {
      "constant": true,
      "inputs": [],
      "name": "state",
      "outputs": [
        {
          "name": "",
          "type": "uint8"
        }
      ],
      "payable": false,
      "stateMutability": "view",
      "type": "function"
    },
    {
      "inputs": [
        {
          "name": "_initPrice",
          "type": "uint256"
        }
      ],
      "payable": false,
      "stateMutability": "nonpayable",
      "type": "constructor"
    },
    {
      "constant": false,
      "inputs": [
        {
          "name": "_price",
          "type": "uint256"
        },
        {
          "name": "_bidder",
          "type": "address"
        }
      ],
      "name": "addBid",
      "outputs": [
        {
          "name": "added",
          "type": "bool"
        }
      ],
      "payable": false,
      "stateMutability": "nonpayable",
      "type": "function"
    },
    {
      "constant": true,
      "inputs": [
        {
          "name": "_sender",
          "type": "address"
        }
      ],
      "name": "getBidAmount",
      "outputs": [
        {
          "name": "amount",
          "type": "uint256"
        }
      ],
      "payable": false,
      "stateMutability": "view",
      "type": "function"
    },
    {
      "constant": true,
      "inputs": [
        {
          "name": "_sender",
          "type": "address"
        }
      ],
      "name": "getPendingAmount",
      "outputs": [
        {
          "name": "amount",
          "type": "uint256"
        }
      ],
      "payable": false,
      "stateMutability": "view",
      "type": "function"
    },
    {
      "constant": false,
      "inputs": [
        {
          "name": "_winner",
          "type": "address"
        },
        {
          "name": "_winningBid",
          "type": "uint256"
        }
      ],
      "name": "adjustBalanceOnWinning",
      "outputs": [],
      "payable": false,
      "stateMutability": "nonpayable",
      "type": "function"
    },
    {
      "constant": false,
      "inputs": [
        {
          "name": "_exists",
          "type": "bool"
        },
        {
          "name": "_state",
          "type": "uint8"
        },
        {
          "name": "_bidder",
          "type": "address"
        }
      ],
      "name": "setBidState",
      "outputs": [
        {
          "name": "bidStateSet",
          "type": "bool"
        }
      ],
      "payable": false,
      "stateMutability": "nonpayable",
      "type": "function"
    },
    {
      "constant": false,
      "inputs": [
        {
          "name": "_price",
          "type": "uint256"
        },
        {
          "name": "_bidder",
          "type": "address"
        }
      ],
      "name": "addDefunctBid",
      "outputs": [
        {
          "name": "added",
          "type": "bool"
        }
      ],
      "payable": false,
      "stateMutability": "nonpayable",
      "type": "function"
    }
  ],
  "bytecode": "0x608060405234801561001057600080fd5b5060405160208061114b833981018060405281019080805190602001909291905050508060008190555060018060006101000a81548160ff0219169083600281111561005857fe5b0217905550506110de8061006d6000396000f3006080604052600436106100af576000357c0100000000000000000000000000000000000000000000000000000000900463ffffffff16806301333f06146100b457806302ccdf921461010b578063056e5e811461017057806313b9b598146101d557806356e9e79a1461022c5780636c0cbe24146102af5780637571af22146103235780637fe01ab91461037a5780639d1b464a146103d1578063c19d93fb146103fc578063d771563314610435575b600080fd5b3480156100c057600080fd5b506100c9610482565b604051808273ffffffffffffffffffffffffffffffffffffffff1673ffffffffffffffffffffffffffffffffffffffff16815260200191505060405180910390f35b34801561011757600080fd5b5061015660048036038101908080359060200190929190803573ffffffffffffffffffffffffffffffffffffffff1690602001909291905050506104a8565b604051808215151515815260200191505060405180910390f35b34801561017c57600080fd5b506101bb60048036038101908080359060200190929190803573ffffffffffffffffffffffffffffffffffffffff16906020019092919050505061059a565b604051808215151515815260200191505060405180910390f35b3480156101e157600080fd5b50610216600480360381019080803573ffffffffffffffffffffffffffffffffffffffff169060200190929190505050610721565b6040518082815260200191505060405180910390f35b34801561023857600080fd5b5061026d600480360381019080803573ffffffffffffffffffffffffffffffffffffffff1690602001909291905050506108d7565b604051808273ffffffffffffffffffffffffffffffffffffffff1673ffffffffffffffffffffffffffffffffffffffff16815260200191505060405180910390f35b3480156102bb57600080fd5b50610309600480360381019080803515159060200190929190803560ff169060200190929190803573ffffffffffffffffffffffffffffffffffffffff16906020019092919050505061090a565b604051808215151515815260200191505060405180910390f35b34801561032f57600080fd5b50610364600480360381019080803573ffffffffffffffffffffffffffffffffffffffff169060200190929190505050610c24565b6040518082815260200191505060405180910390f35b34801561038657600080fd5b506103bb600480360381019080803573ffffffffffffffffffffffffffffffffffffffff169060200190929190505050610c6d565b6040518082815260200191505060405180910390f35b3480156103dd57600080fd5b506103e6610c85565b6040518082815260200191505060405180910390f35b34801561040857600080fd5b50610411610c8b565b6040518082600281111561042157fe5b60ff16815260200191505060405180910390f35b34801561044157600080fd5b50610480600480360381019080803573ffffffffffffffffffffffffffffffffffffffff16906020019092919080359060200190929190505050610c9e565b005b600460009054906101000a900473ffffffffffffffffffffffffffffffffffffffff1681565b60008083836104b5610cef565b808381526020018273ffffffffffffffffffffffffffffffffffffffff1673ffffffffffffffffffffffffffffffffffffffff16815260200192505050604051809103906000f08015801561050e573d6000803e3d6000fd5b50905080600260008573ffffffffffffffffffffffffffffffffffffffff1673ffffffffffffffffffffffffffffffffffffffff16815260200190815260200160002060006101000a81548173ffffffffffffffffffffffffffffffffffffffff021916908373ffffffffffffffffffffffffffffffffffffffff160217905550600191505092915050565b60008083836105a7610cef565b808381526020018273ffffffffffffffffffffffffffffffffffffffff1673ffffffffffffffffffffffffffffffffffffffff16815260200192505050604051809103906000f080158015610600573d6000803e3d6000fd5b50905080600260008573ffffffffffffffffffffffffffffffffffffffff1673ffffffffffffffffffffffffffffffffffffffff16815260200190815260200160002060006101000a81548173ffffffffffffffffffffffffffffffffffffffff021916908373ffffffffffffffffffffffffffffffffffffffff16021790555083600360008573ffffffffffffffffffffffffffffffffffffffff1673ffffffffffffffffffffffffffffffffffffffff168152602001908152602001600020600082825401925050819055508360008190555082600460006101000a81548173ffffffffffffffffffffffffffffffffffffffff021916908373ffffffffffffffffffffffffffffffffffffffff160217905550600191505092915050565b600080600260008473ffffffffffffffffffffffffffffffffffffffff1673ffffffffffffffffffffffffffffffffffffffff16815260200190815260200160002060009054906101000a900473ffffffffffffffffffffffffffffffffffffffff1690508073ffffffffffffffffffffffffffffffffffffffff1663267c4ae46040518163ffffffff167c0100000000000000000000000000000000000000000000000000000000028152600401602060405180830381600087803b1580156107ea57600080fd5b505af11580156107fe573d6000803e3d6000fd5b505050506040513d602081101561081457600080fd5b8101908080519060200190929190505050151561083057600080fd5b8073ffffffffffffffffffffffffffffffffffffffff1663aa8c217c6040518163ffffffff167c0100000000000000000000000000000000000000000000000000000000028152600401602060405180830381600087803b15801561089457600080fd5b505af11580156108a8573d6000803e3d6000fd5b505050506040513d60208110156108be57600080fd5b8101908080519060200190929190505050915050919050565b60026020528060005260406000206000915054906101000a900473ffffffffffffffffffffffffffffffffffffffff1681565b600080600260008473ffffffffffffffffffffffffffffffffffffffff1673ffffffffffffffffffffffffffffffffffffffff16815260200190815260200160002060009054906101000a900473ffffffffffffffffffffffffffffffffffffffff169050600115158173ffffffffffffffffffffffffffffffffffffffff1663267c4ae46040518163ffffffff167c0100000000000000000000000000000000000000000000000000000000028152600401602060405180830381600087803b1580156109d757600080fd5b505af11580156109eb573d6000803e3d6000fd5b505050506040513d6020811015610a0157600080fd5b81019080805190602001909291905050501515141515610a2057600080fd5b8273ffffffffffffffffffffffffffffffffffffffff168173ffffffffffffffffffffffffffffffffffffffff16638da5cb5b6040518163ffffffff167c0100000000000000000000000000000000000000000000000000000000028152600401602060405180830381600087803b158015610a9b57600080fd5b505af1158015610aaf573d6000803e3d6000fd5b505050506040513d6020811015610ac557600080fd5b810190808051906020019092919050505073ffffffffffffffffffffffffffffffffffffffff16141515610af857600080fd5b8073ffffffffffffffffffffffffffffffffffffffff166356de96db856040518263ffffffff167c010000000000000000000000000000000000000000000000000000000002815260040180826004811115610b5057fe5b60ff168152602001915050600060405180830381600087803b158015610b7557600080fd5b505af1158015610b89573d6000803e3d6000fd5b505050508073ffffffffffffffffffffffffffffffffffffffff1663592056a8866040518263ffffffff167c01000000000000000000000000000000000000000000000000000000000281526004018082151515158152602001915050600060405180830381600087803b158015610c0057600080fd5b505af1158015610c14573d6000803e3d6000fd5b5050505060019150509392505050565b6000600360008373ffffffffffffffffffffffffffffffffffffffff1673ffffffffffffffffffffffffffffffffffffffff168152602001908152602001600020549050919050565b60036020528060005260406000206000915090505481565b60005481565b600160009054906101000a900460ff1681565b80600360008473ffffffffffffffffffffffffffffffffffffffff1673ffffffffffffffffffffffffffffffffffffffff168152602001908152602001600020600082825403925050819055505050565b6040516103b380610d00833901905600608060405234801561001057600080fd5b506040516040806103b383398101806040528101908080519060200190929190805190602001909291905050508160008190555080600160026101000a81548173ffffffffffffffffffffffffffffffffffffffff021916908373ffffffffffffffffffffffffffffffffffffffff16021790555060018060006101000a81548160ff021916908360048111156100a357fe5b021790555060018060016101000a81548160ff02191690831515021790555050506102e0806100d36000396000f300608060405260043610610083576000357c0100000000000000000000000000000000000000000000000000000000900463ffffffff1680631865c57d14610088578063267c4ae4146100c157806356de96db146100f0578063592056a8146101205780638da5cb5b1461014f578063aa8c217c146101a6578063c19d93fb146101d1575b600080fd5b34801561009457600080fd5b5061009d61020a565b604051808260048111156100ad57fe5b60ff16815260200191505060405180910390f35b3480156100cd57600080fd5b506100d6610221565b604051808215151515815260200191505060405180910390f35b3480156100fc57600080fd5b5061011e600480360381019080803560ff169060200190929190505050610233565b005b34801561012c57600080fd5b5061014d600480360381019080803515159060200190929190505050610259565b005b34801561015b57600080fd5b50610164610275565b604051808273ffffffffffffffffffffffffffffffffffffffff1673ffffffffffffffffffffffffffffffffffffffff16815260200191505060405180910390f35b3480156101b257600080fd5b506101bb61029b565b6040518082815260200191505060405180910390f35b3480156101dd57600080fd5b506101e66102a1565b604051808260048111156101f657fe5b60ff16815260200191505060405180910390f35b6000600160009054906101000a900460ff16905090565b6001809054906101000a900460ff1681565b80600160006101000a81548160ff0219169083600481111561025157fe5b021790555050565b806001806101000a81548160ff02191690831515021790555050565b600160029054906101000a900473ffffffffffffffffffffffffffffffffffffffff1681565b60005481565b600160009054906101000a900460ff16815600a165627a7a723058203496d5af80f78767161fd9fc317645e0f9a52e4ee333343c2376c41df275a0c00029a165627a7a72305820feaa226ef9595efa32e07ec4ddc10a5bfa7a7f958e978ca4f0eb239a62413f980029",
  "source": "pragma solidity ^0.4.18;\n\nimport './Bid.sol';\n\ncontract BidContainer {\n    \n    using Library for Library.BidStates;\n    using Library for Library.BidContainerState;\n    // Once the ownership is transferred , container is inactive\n\n    \n    // The DNS name holder and the bidders only care about the highest bid\n    \n   // Initially holds the price paid to reserve\n   // then holds highest bid price so far\n    uint public currentPrice;\n    Library.BidContainerState public state;\n\n    // Allowed withdrawals of previous bids\n    mapping(address => Bid) public bidMap;\n    // All bids from an address so far are kept here\n    mapping (address => uint) public balancesMap;\n    // top bidder here\n    address  public topBidder;\n    \n    // constructor\n    function BidContainer(uint _initPrice) public {\n         currentPrice = _initPrice;\n         state = Library.BidContainerState.ACTIVE;\n    }\n    \n/**\n * Add a bid \n * This can be called only if the user is outbidding the highest bid\n * Bidders total balance is tracked\n */\n    function addBid(uint _price, address _bidder) public returns(bool added) {\n        Bid bid = new Bid(_price,_bidder);\n        bidMap[_bidder] = bid;\n        // add price it to sender balanace\n        balancesMap[_bidder] += _price;\n        // update the currentPrice\n        currentPrice = _price;\n        topBidder = _bidder;\n        return true;\n    }\n    /**\n     * Function to get the bid amount for a bidder\n     * returns the latest most Highest bid only       \n     */\n    function getBidAmount(address _sender) public view returns(uint amount) {\n     Bid bid = bidMap[_sender];\n     require(bid.exists());\n     return bid.amount();\n    }\n\n   /**\n    * Function returns all the bids from an address\n    */\n\n   function getPendingAmount(address _sender) public view returns(uint amount) {\n     return balancesMap[_sender];\n    }\n    \n    /**\n     * Balance is reduced as the winning bid goes to Name holder\n     */\n    function adjustBalanceOnWinning(address _winner, uint _winningBid) public {\n        balancesMap[_winner] -= _winningBid;\n    }\n        \n  /**\n   * Maintains bid states \n   */\n    function setBidState(bool _exists, Library.BidStates _state, address _bidder) \n        public returns(bool bidStateSet)\n        {\n        Bid bid = bidMap[_bidder];\n        require(bid.exists() == true);\n        require(bid.owner() == _bidder);\n        bid.setState(_state);\n        bid.setBidExists(_exists);\n        return true;\n       }\n    /**\n     * In case money transfer fails and bid is already removed from system\n     * This function adds it back in without changing the topBidder or price\n     */\n\tfunction addDefunctBid(uint _price, address _bidder) public returns(bool added) {\n        Bid bid = new Bid(_price,_bidder);\n        bidMap[_bidder] = bid;\n        return true;\n    }\n}",
  "sourcePath": "/Users/hitesh/myworkspace/dump/dns-dapp/contracts/BidContainer.sol",
  "compiler": {
    "name": "solc",
    "version": "0.4.25+commit.59dbf8f1.Emscripten.clang"
  },
  "schemaVersion": "2.0.2",
  "updatedAt": "2019-01-12T10:24:30.916Z"
}