{
  "contractName": "BidContainer",
  "abi": [
    {
      "constant": true,
      "inputs": [],
      "name": "topBidder",
      "outputs": [
        {
          "name": "",
          "type": "address"
        }
      ],
      "payable": false,
      "stateMutability": "view",
      "type": "function"
    },
    {
      "constant": true,
      "inputs": [
        {
          "name": "",
          "type": "address"
        }
      ],
      "name": "bidMap",
      "outputs": [
        {
          "name": "",
          "type": "address"
        }
      ],
      "payable": false,
      "stateMutability": "view",
      "type": "function"
    },
    {
      "constant": true,
      "inputs": [
        {
          "name": "",
          "type": "address"
        }
      ],
      "name": "balancesMap",
      "outputs": [
        {
          "name": "",
          "type": "uint256"
        }
      ],
      "payable": false,
      "stateMutability": "view",
      "type": "function"
    },
    {
      "constant": true,
      "inputs": [],
      "name": "currentPrice",
      "outputs": [
        {
          "name": "",
          "type": "uint256"
        }
      ],
      "payable": false,
      "stateMutability": "view",
      "type": "function"
    },
    {
      "constant": true,
      "inputs": [],
      "name": "state",
      "outputs": [
        {
          "name": "",
          "type": "uint8"
        }
      ],
      "payable": false,
      "stateMutability": "view",
      "type": "function"
    },
    {
      "inputs": [
        {
          "name": "_initPrice",
          "type": "uint256"
        }
      ],
      "payable": false,
      "stateMutability": "nonpayable",
      "type": "constructor"
    },
    {
      "constant": false,
      "inputs": [
        {
          "name": "_price",
          "type": "uint256"
        },
        {
          "name": "_bidder",
          "type": "address"
        }
      ],
      "name": "addBid",
      "outputs": [
        {
          "name": "added",
          "type": "bool"
        }
      ],
      "payable": false,
      "stateMutability": "nonpayable",
      "type": "function"
    },
    {
      "constant": true,
      "inputs": [
        {
          "name": "_sender",
          "type": "address"
        }
      ],
      "name": "getBidAmount",
      "outputs": [
        {
          "name": "amount",
          "type": "uint256"
        }
      ],
      "payable": false,
      "stateMutability": "view",
      "type": "function"
    },
    {
      "constant": true,
      "inputs": [
        {
          "name": "_sender",
          "type": "address"
        }
      ],
      "name": "getPendingAmount",
      "outputs": [
        {
          "name": "amount",
          "type": "uint256"
        }
      ],
      "payable": false,
      "stateMutability": "view",
      "type": "function"
    },
    {
      "constant": false,
      "inputs": [
        {
          "name": "_winner",
          "type": "address"
        },
        {
          "name": "_winningBid",
          "type": "uint256"
        }
      ],
      "name": "adjustBalanceOnWinning",
      "outputs": [],
      "payable": false,
      "stateMutability": "nonpayable",
      "type": "function"
    },
    {
      "constant": false,
      "inputs": [
        {
          "name": "_exists",
          "type": "bool"
        },
        {
          "name": "_state",
          "type": "uint8"
        },
        {
          "name": "_bidder",
          "type": "address"
        }
      ],
      "name": "setBidState",
      "outputs": [
        {
          "name": "bidStateSet",
          "type": "bool"
        }
      ],
      "payable": false,
      "stateMutability": "nonpayable",
      "type": "function"
    },
    {
      "constant": false,
      "inputs": [
        {
          "name": "_price",
          "type": "uint256"
        },
        {
          "name": "_bidder",
          "type": "address"
        }
      ],
      "name": "addDefunctBid",
      "outputs": [
        {
          "name": "added",
          "type": "bool"
        }
      ],
      "payable": false,
      "stateMutability": "nonpayable",
      "type": "function"
    }
  ],
  "bytecode": "0x608060405234801561001057600080fd5b506040516020806111eb8339810180604052602081101561003057600080fd5b81019080805190602001909291905050508060008190555060018060006101000a81548160ff0219169083600281111561006657fe5b0217905550506111708061007b6000396000f3fe6080604052600436106100af576000357c0100000000000000000000000000000000000000000000000000000000900463ffffffff16806301333f06146100b457806302ccdf921461010b578063056e5e811461017e57806313b9b598146101f157806356e9e79a146102565780636c0cbe24146102e75780637571af22146103695780637fe01ab9146103ce5780639d1b464a14610433578063c19d93fb1461045e578063d771563314610497575b600080fd5b3480156100c057600080fd5b506100c96104f2565b604051808273ffffffffffffffffffffffffffffffffffffffff1673ffffffffffffffffffffffffffffffffffffffff16815260200191505060405180910390f35b34801561011757600080fd5b506101646004803603604081101561012e57600080fd5b8101908080359060200190929190803573ffffffffffffffffffffffffffffffffffffffff169060200190929190505050610518565b604051808215151515815260200191505060405180910390f35b34801561018a57600080fd5b506101d7600480360360408110156101a157600080fd5b8101908080359060200190929190803573ffffffffffffffffffffffffffffffffffffffff16906020019092919050505061060a565b604051808215151515815260200191505060405180910390f35b3480156101fd57600080fd5b506102406004803603602081101561021457600080fd5b81019080803573ffffffffffffffffffffffffffffffffffffffff169060200190929190505050610791565b6040518082815260200191505060405180910390f35b34801561026257600080fd5b506102a56004803603602081101561027957600080fd5b81019080803573ffffffffffffffffffffffffffffffffffffffff169060200190929190505050610943565b604051808273ffffffffffffffffffffffffffffffffffffffff1673ffffffffffffffffffffffffffffffffffffffff16815260200191505060405180910390f35b3480156102f357600080fd5b5061034f6004803603606081101561030a57600080fd5b81019080803515159060200190929190803560ff169060200190929190803573ffffffffffffffffffffffffffffffffffffffff169060200190929190505050610976565b604051808215151515815260200191505060405180910390f35b34801561037557600080fd5b506103b86004803603602081101561038c57600080fd5b81019080803573ffffffffffffffffffffffffffffffffffffffff169060200190929190505050610c8c565b6040518082815260200191505060405180910390f35b3480156103da57600080fd5b5061041d600480360360208110156103f157600080fd5b81019080803573ffffffffffffffffffffffffffffffffffffffff169060200190929190505050610cd5565b6040518082815260200191505060405180910390f35b34801561043f57600080fd5b50610448610ced565b6040518082815260200191505060405180910390f35b34801561046a57600080fd5b50610473610cf3565b6040518082600281111561048357fe5b60ff16815260200191505060405180910390f35b3480156104a357600080fd5b506104f0600480360360408110156104ba57600080fd5b81019080803573ffffffffffffffffffffffffffffffffffffffff16906020019092919080359060200190929190505050610d06565b005b600460009054906101000a900473ffffffffffffffffffffffffffffffffffffffff1681565b6000808383610525610d57565b808381526020018273ffffffffffffffffffffffffffffffffffffffff1673ffffffffffffffffffffffffffffffffffffffff16815260200192505050604051809103906000f08015801561057e573d6000803e3d6000fd5b50905080600260008573ffffffffffffffffffffffffffffffffffffffff1673ffffffffffffffffffffffffffffffffffffffff16815260200190815260200160002060006101000a81548173ffffffffffffffffffffffffffffffffffffffff021916908373ffffffffffffffffffffffffffffffffffffffff160217905550600191505092915050565b6000808383610617610d57565b808381526020018273ffffffffffffffffffffffffffffffffffffffff1673ffffffffffffffffffffffffffffffffffffffff16815260200192505050604051809103906000f080158015610670573d6000803e3d6000fd5b50905080600260008573ffffffffffffffffffffffffffffffffffffffff1673ffffffffffffffffffffffffffffffffffffffff16815260200190815260200160002060006101000a81548173ffffffffffffffffffffffffffffffffffffffff021916908373ffffffffffffffffffffffffffffffffffffffff16021790555083600360008573ffffffffffffffffffffffffffffffffffffffff1673ffffffffffffffffffffffffffffffffffffffff168152602001908152602001600020600082825401925050819055508360008190555082600460006101000a81548173ffffffffffffffffffffffffffffffffffffffff021916908373ffffffffffffffffffffffffffffffffffffffff160217905550600191505092915050565b600080600260008473ffffffffffffffffffffffffffffffffffffffff1673ffffffffffffffffffffffffffffffffffffffff16815260200190815260200160002060009054906101000a900473ffffffffffffffffffffffffffffffffffffffff1690508073ffffffffffffffffffffffffffffffffffffffff1663267c4ae46040518163ffffffff167c010000000000000000000000000000000000000000000000000000000002815260040160206040518083038186803b15801561085857600080fd5b505afa15801561086c573d6000803e3d6000fd5b505050506040513d602081101561088257600080fd5b8101908080519060200190929190505050151561089e57600080fd5b8073ffffffffffffffffffffffffffffffffffffffff1663aa8c217c6040518163ffffffff167c010000000000000000000000000000000000000000000000000000000002815260040160206040518083038186803b15801561090057600080fd5b505afa158015610914573d6000803e3d6000fd5b505050506040513d602081101561092a57600080fd5b8101908080519060200190929190505050915050919050565b60026020528060005260406000206000915054906101000a900473ffffffffffffffffffffffffffffffffffffffff1681565b600080600260008473ffffffffffffffffffffffffffffffffffffffff1673ffffffffffffffffffffffffffffffffffffffff16815260200190815260200160002060009054906101000a900473ffffffffffffffffffffffffffffffffffffffff169050600115158173ffffffffffffffffffffffffffffffffffffffff1663267c4ae46040518163ffffffff167c010000000000000000000000000000000000000000000000000000000002815260040160206040518083038186803b158015610a4157600080fd5b505afa158015610a55573d6000803e3d6000fd5b505050506040513d6020811015610a6b57600080fd5b81019080805190602001909291905050501515141515610a8a57600080fd5b8273ffffffffffffffffffffffffffffffffffffffff168173ffffffffffffffffffffffffffffffffffffffff16638da5cb5b6040518163ffffffff167c010000000000000000000000000000000000000000000000000000000002815260040160206040518083038186803b158015610b0357600080fd5b505afa158015610b17573d6000803e3d6000fd5b505050506040513d6020811015610b2d57600080fd5b810190808051906020019092919050505073ffffffffffffffffffffffffffffffffffffffff16141515610b6057600080fd5b8073ffffffffffffffffffffffffffffffffffffffff166356de96db856040518263ffffffff167c010000000000000000000000000000000000000000000000000000000002815260040180826004811115610bb857fe5b60ff168152602001915050600060405180830381600087803b158015610bdd57600080fd5b505af1158015610bf1573d6000803e3d6000fd5b505050508073ffffffffffffffffffffffffffffffffffffffff1663592056a8866040518263ffffffff167c01000000000000000000000000000000000000000000000000000000000281526004018082151515158152602001915050600060405180830381600087803b158015610c6857600080fd5b505af1158015610c7c573d6000803e3d6000fd5b5050505060019150509392505050565b6000600360008373ffffffffffffffffffffffffffffffffffffffff1673ffffffffffffffffffffffffffffffffffffffff168152602001908152602001600020549050919050565b60036020528060005260406000206000915090505481565b60005481565b600160009054906101000a900460ff1681565b80600360008473ffffffffffffffffffffffffffffffffffffffff1673ffffffffffffffffffffffffffffffffffffffff168152602001908152602001600020600082825403925050819055505050565b6040516103dd80610d688339019056fe608060405234801561001057600080fd5b506040516040806103dd8339810180604052604081101561003057600080fd5b8101908080519060200190929190805190602001909291905050508160008190555080600160026101000a81548173ffffffffffffffffffffffffffffffffffffffff021916908373ffffffffffffffffffffffffffffffffffffffff16021790555060018060006101000a81548160ff021916908360048111156100b157fe5b021790555060018060016101000a81548160ff02191690831515021790555050506102fc806100e16000396000f3fe608060405260043610610083576000357c0100000000000000000000000000000000000000000000000000000000900463ffffffff1680631865c57d14610088578063267c4ae4146100c157806356de96db146100f0578063592056a81461012e5780638da5cb5b1461016b578063aa8c217c146101c2578063c19d93fb146101ed575b600080fd5b34801561009457600080fd5b5061009d610226565b604051808260048111156100ad57fe5b60ff16815260200191505060405180910390f35b3480156100cd57600080fd5b506100d661023d565b604051808215151515815260200191505060405180910390f35b3480156100fc57600080fd5b5061012c6004803603602081101561011357600080fd5b81019080803560ff16906020019092919050505061024f565b005b34801561013a57600080fd5b506101696004803603602081101561015157600080fd5b81019080803515159060200190929190505050610275565b005b34801561017757600080fd5b50610180610291565b604051808273ffffffffffffffffffffffffffffffffffffffff1673ffffffffffffffffffffffffffffffffffffffff16815260200191505060405180910390f35b3480156101ce57600080fd5b506101d76102b7565b6040518082815260200191505060405180910390f35b3480156101f957600080fd5b506102026102bd565b6040518082600481111561021257fe5b60ff16815260200191505060405180910390f35b6000600160009054906101000a900460ff16905090565b6001809054906101000a900460ff1681565b80600160006101000a81548160ff0219169083600481111561026d57fe5b021790555050565b806001806101000a81548160ff02191690831515021790555050565b600160029054906101000a900473ffffffffffffffffffffffffffffffffffffffff1681565b60005481565b600160009054906101000a900460ff168156fea165627a7a7230582022bc82d6efb32bcc2f7ab0c8f412cc5fb3c58c732dfe99c48fca66e9112a11050029a165627a7a72305820ca66c5856c1045ead1081e368bdd924ddc25fcd0cf17a658d9254c1eb1722fc60029",
  "source": "pragma solidity >=0.4.0 <0.6.0;\n\nimport './Bid.sol';\n\ncontract BidContainer {\n    \n    using Library for Library.BidStates;\n    using Library for Library.BidContainerState;\n    // Once the ownership is transferred , container is inactive\n\n    \n    // The DNS name holder and the bidders only care about the highest bid\n    \n   // Initially holds the price paid to reserve\n   // then holds highest bid price so far\n    uint public currentPrice;\n    Library.BidContainerState public state;\n\n    // Allowed withdrawals of previous bids\n    mapping(address => Bid) public bidMap;\n    // All bids from an address so far are kept here\n    mapping (address => uint) public balancesMap;\n    // top bidder here\n    address payable  public topBidder;\n    \n    // constructor\n      constructor(uint _initPrice) public {\n         currentPrice = _initPrice;\n         state = Library.BidContainerState.ACTIVE;\n    }\n    \n/**\n * Add a bid \n * This can be called only if the user is outbidding the highest bid\n * Bidders total balance is tracked\n */\n    function addBid(uint _price, address payable _bidder) public returns(bool added) {\n        Bid bid = new Bid(_price,_bidder);\n        bidMap[_bidder] = bid;\n        // add price it to sender balanace\n        balancesMap[_bidder] += _price;\n        // update the currentPrice\n        currentPrice = _price;\n        topBidder = _bidder;\n        return true;\n    }\n    /**\n     * Function to get the bid amount for a bidder\n     * returns the latest most Highest bid only       \n     */\n    function getBidAmount(address _sender) public view returns(uint amount) {\n     Bid bid = bidMap[_sender];\n     require(bid.exists());\n     return bid.amount();\n    }\n\n   /**\n    * Function returns all the bids from an address\n    */\n\n   function getPendingAmount(address _sender) public view returns(uint amount) {\n     return balancesMap[_sender];\n    }\n    \n    /**\n     * Balance is reduced as the winning bid goes to Name holder\n     */\n    function adjustBalanceOnWinning(address _winner, uint _winningBid) public {\n        balancesMap[_winner] -= _winningBid;\n    }\n        \n  /**\n   * Maintains bid states \n   */\n    function setBidState(bool _exists, Library.BidStates _state, address _bidder) \n        public returns(bool bidStateSet)\n        {\n        Bid bid = bidMap[_bidder];\n        require(bid.exists() == true);\n        require(bid.owner() == _bidder);\n        bid.setState(_state);\n        bid.setBidExists(_exists);\n        return true;\n       }\n    /**\n     * In case money transfer fails and bid is already removed from system\n     * This function adds it back in without changing the topBidder or price\n     */\n\tfunction addDefunctBid(uint _price, address _bidder) public returns(bool added) {\n        Bid bid = new Bid(_price,_bidder);\n        bidMap[_bidder] = bid;\n        return true;\n    }\n}",
  "sourcePath": "/Users/hitesh/myworkspace/dns-dapp/contracts/BidContainer.sol",
  "compiler": {
    "name": "solc",
    "version": "0.5.0+commit.1d4f565a.Emscripten.clang"
  },
  "schemaVersion": "3.0.8",
  "updatedAt": "2019-04-24T23:02:32.178Z",
  "devdoc": {
    "methods": {}
  },
  "userdoc": {
    "methods": {
      "addBid(uint256,address)": {
        "notice": "Add a bid  This can be called only if the user is outbidding the highest bid Bidders total balance is tracked"
      },
      "addDefunctBid(uint256,address)": {
        "notice": "In case money transfer fails and bid is already removed from system This function adds it back in without changing the topBidder or price"
      },
      "adjustBalanceOnWinning(address,uint256)": {
        "notice": "Balance is reduced as the winning bid goes to Name holder"
      },
      "getBidAmount(address)": {
        "notice": "Function to get the bid amount for a bidder returns the latest most Highest bid only       "
      },
      "getPendingAmount(address)": {
        "notice": "Function returns all the bids from an address"
      },
      "setBidState(bool,uint8,address)": {
        "notice": "Maintains bid states "
      }
    }
  }
}