{
  "contractName": "DNSRegistry",
  "abi": [
    {
      "constant": true,
      "inputs": [
        {
          "name": "source",
          "type": "string"
        }
      ],
      "name": "toBytes32",
      "outputs": [
        {
          "name": "",
          "type": "bytes32"
        }
      ],
      "payable": false,
      "stateMutability": "pure",
      "type": "function"
    },
    {
      "inputs": [],
      "payable": false,
      "stateMutability": "nonpayable",
      "type": "constructor"
    },
    {
      "anonymous": false,
      "inputs": [
        {
          "indexed": false,
          "name": "_owner",
          "type": "address"
        }
      ],
      "name": "DnsCreatedEvent",
      "type": "event"
    },
    {
      "anonymous": false,
      "inputs": [
        {
          "indexed": false,
          "name": "_name",
          "type": "string"
        },
        {
          "indexed": false,
          "name": "_reserveNameFee",
          "type": "uint256"
        },
        {
          "indexed": false,
          "name": "_reservedBy",
          "type": "address"
        },
        {
          "indexed": false,
          "name": "_success",
          "type": "bool"
        }
      ],
      "name": "ReserveNameEvent",
      "type": "event"
    },
    {
      "anonymous": false,
      "inputs": [
        {
          "indexed": false,
          "name": "_name",
          "type": "string"
        },
        {
          "indexed": false,
          "name": "_amount",
          "type": "uint256"
        }
      ],
      "name": "EtherSentToNameEvent",
      "type": "event"
    },
    {
      "anonymous": false,
      "inputs": [
        {
          "indexed": false,
          "name": "_name",
          "type": "string"
        }
      ],
      "name": "ReleasedOwnershipEvent",
      "type": "event"
    },
    {
      "anonymous": false,
      "inputs": [
        {
          "indexed": false,
          "name": "bidder",
          "type": "address"
        },
        {
          "indexed": false,
          "name": "price",
          "type": "uint256"
        }
      ],
      "name": "HighestBidIncreasedEvent",
      "type": "event"
    },
    {
      "anonymous": false,
      "inputs": [
        {
          "indexed": false,
          "name": "_name",
          "type": "string"
        },
        {
          "indexed": false,
          "name": "_bidder",
          "type": "address"
        },
        {
          "indexed": false,
          "name": "_withdrawnAmount",
          "type": "uint256"
        }
      ],
      "name": "BidWithdrawnEvent",
      "type": "event"
    },
    {
      "anonymous": false,
      "inputs": [
        {
          "indexed": false,
          "name": "_name",
          "type": "string"
        },
        {
          "indexed": false,
          "name": "_oldOwner",
          "type": "address"
        },
        {
          "indexed": false,
          "name": "newOwner",
          "type": "address"
        },
        {
          "indexed": false,
          "name": "latestPrice",
          "type": "uint256"
        }
      ],
      "name": "BidAcceptedEvent",
      "type": "event"
    },
    {
      "constant": true,
      "inputs": [
        {
          "name": "_name",
          "type": "string"
        }
      ],
      "name": "checkNameExists",
      "outputs": [
        {
          "name": "_exists",
          "type": "bool"
        }
      ],
      "payable": false,
      "stateMutability": "view",
      "type": "function"
    },
    {
      "constant": false,
      "inputs": [
        {
          "name": "_name",
          "type": "string"
        }
      ],
      "name": "reserveName",
      "outputs": [
        {
          "name": "success",
          "type": "bool"
        }
      ],
      "payable": true,
      "stateMutability": "payable",
      "type": "function"
    },
    {
      "constant": false,
      "inputs": [
        {
          "name": "_name",
          "type": "string"
        }
      ],
      "name": "sendEtherToName",
      "outputs": [
        {
          "name": "",
          "type": "bool"
        }
      ],
      "payable": true,
      "stateMutability": "payable",
      "type": "function"
    },
    {
      "constant": false,
      "inputs": [
        {
          "name": "_name",
          "type": "string"
        }
      ],
      "name": "bid",
      "outputs": [],
      "payable": true,
      "stateMutability": "payable",
      "type": "function"
    },
    {
      "constant": true,
      "inputs": [
        {
          "name": "_name",
          "type": "string"
        }
      ],
      "name": "getHighestBidSoFar",
      "outputs": [
        {
          "name": "bidPrice",
          "type": "uint256"
        }
      ],
      "payable": false,
      "stateMutability": "view",
      "type": "function"
    },
    {
      "constant": true,
      "inputs": [
        {
          "name": "_name",
          "type": "string"
        }
      ],
      "name": "getHighestBidder",
      "outputs": [
        {
          "name": "bidder",
          "type": "address"
        }
      ],
      "payable": false,
      "stateMutability": "view",
      "type": "function"
    },
    {
      "constant": true,
      "inputs": [
        {
          "name": "_name",
          "type": "string"
        },
        {
          "name": "_address",
          "type": "address"
        }
      ],
      "name": "getBidValue",
      "outputs": [
        {
          "name": "bidval",
          "type": "uint256"
        }
      ],
      "payable": false,
      "stateMutability": "view",
      "type": "function"
    },
    {
      "constant": false,
      "inputs": [
        {
          "name": "_name",
          "type": "string"
        }
      ],
      "name": "withdrawOverBiddenBid",
      "outputs": [
        {
          "name": "done",
          "type": "bool"
        }
      ],
      "payable": false,
      "stateMutability": "nonpayable",
      "type": "function"
    },
    {
      "constant": false,
      "inputs": [
        {
          "name": "_name",
          "type": "string"
        }
      ],
      "name": "acceptBidAndTransferOwnerShip",
      "outputs": [
        {
          "name": "transferred",
          "type": "bool"
        }
      ],
      "payable": false,
      "stateMutability": "nonpayable",
      "type": "function"
    },
    {
      "constant": false,
      "inputs": [
        {
          "name": "_name",
          "type": "string"
        }
      ],
      "name": "releaseOwnership",
      "outputs": [
        {
          "name": "_released",
          "type": "bool"
        }
      ],
      "payable": false,
      "stateMutability": "nonpayable",
      "type": "function"
    },
    {
      "constant": true,
      "inputs": [
        {
          "name": "_name",
          "type": "string"
        }
      ],
      "name": "checkNamePrice",
      "outputs": [
        {
          "name": "",
          "type": "uint256"
        }
      ],
      "payable": false,
      "stateMutability": "view",
      "type": "function"
    },
    {
      "constant": true,
      "inputs": [
        {
          "name": "_name",
          "type": "string"
        }
      ],
      "name": "getCurrentOwnerOfName",
      "outputs": [
        {
          "name": "",
          "type": "address"
        }
      ],
      "payable": false,
      "stateMutability": "view",
      "type": "function"
    },
    {
      "constant": true,
      "inputs": [],
      "name": "getTotalEtherHeldInContract",
      "outputs": [
        {
          "name": "",
          "type": "uint256"
        }
      ],
      "payable": false,
      "stateMutability": "view",
      "type": "function"
    }
  ],
  "bytecode": "0x6060604052341561000f57600080fd5b33600360006101000a81548173ffffffffffffffffffffffffffffffffffffffff021916908373ffffffffffffffffffffffffffffffffffffffff1602179055507f59e58229fbdadfef872ed7eec38e542c49020d16796c9d679d72f20885a46d2333604051808273ffffffffffffffffffffffffffffffffffffffff1673ffffffffffffffffffffffffffffffffffffffff16815260200191505060405180910390a1612e84806100c26000396000f3006060604052600436106100d0576000357c0100000000000000000000000000000000000000000000000000000000900463ffffffff1680630c25648f146100d55780631da3b0881461017257806327df8f2a1461020f5780632ae09c681461028857806336918a57146102fd5780633f0296891461036e5780635d8468ea146103975780635f28d32914610401578063760f8559146104915780637aef951c14610506578063a11165a614610558578063ca18b9e2146105cd578063cda146d814610637578063d829af5e146106ac575b600080fd5b34156100e057600080fd5b610130600480803590602001908201803590602001908080601f0160208091040260200160405190810160405280939291908181526020018383808284378201915050505050509190505061071d565b604051808273ffffffffffffffffffffffffffffffffffffffff1673ffffffffffffffffffffffffffffffffffffffff16815260200191505060405180910390f35b341561017d57600080fd5b6101cd600480803590602001908201803590602001908080601f016020809104026020016040519081016040528093929190818152602001838380828437820191505050505050919050506107fb565b604051808273ffffffffffffffffffffffffffffffffffffffff1673ffffffffffffffffffffffffffffffffffffffff16815260200191505060405180910390f35b341561021a57600080fd5b61026a600480803590602001908201803590602001908080601f01602080910402602001604051908101604052809392919081815260200183838082843782019150505050505091905050610864565b60405180826000191660001916815260200191505060405180910390f35b341561029357600080fd5b6102e3600480803590602001908201803590602001908080601f01602080910402602001604051908101604052809392919081815260200183838082843782019150505050505091905050610876565b604051808215151515815260200191505060405180910390f35b341561030857600080fd5b610358600480803590602001908201803590602001908080601f01602080910402602001604051908101604052809392919081815260200183838082843782019150505050505091905050610895565b6040518082815260200191505060405180910390f35b341561037957600080fd5b6103816108de565b6040518082815260200191505060405180910390f35b6103e7600480803590602001908201803590602001908080601f016020809104026020016040519081016040528093929190818152602001838380828437820191505050505050919050506108fd565b604051808215151515815260200191505060405180910390f35b341561040c57600080fd5b61047b600480803590602001908201803590602001908080601f0160208091040260200160405190810160405280939291908181526020018383808284378201915050505050509190803573ffffffffffffffffffffffffffffffffffffffff16906020019091905050610aea565b6040518082815260200191505060405180910390f35b341561049c57600080fd5b6104ec600480803590602001908201803590602001908080601f01602080910402602001604051908101604052809392919081815260200183838082843782019150505050505091905050610c00565b604051808215151515815260200191505060405180910390f35b610556600480803590602001908201803590602001908080601f016020809104026020016040519081016040528093929190818152602001838380828437820191505050505050919050506110c4565b005b341561056357600080fd5b6105b3600480803590602001908201803590602001908080601f01602080910402602001604051908101604052809392919081815260200183838082843782019150505050505091905050611300565b604051808215151515815260200191505060405180910390f35b61061d600480803590602001908201803590602001908080601f0160208091040260200160405190810160405280939291908181526020018383808284378201915050505050509190505061178a565b604051808215151515815260200191505060405180910390f35b341561064257600080fd5b610692600480803590602001908201803590602001908080601f016020809104026020016040519081016040528093929190818152602001838380828437820191505050505050919050506119c0565b604051808215151515815260200191505060405180910390f35b34156106b757600080fd5b610707600480803590602001908201803590602001908080601f01602080910402602001604051908101604052809392919081815260200183838082843782019150505050505091905050611b6b565b6040518082815260200191505060405180910390f35b600080600061072b84610864565b915060026000836000191660001916815260200190815260200160002060009054906101000a900473ffffffffffffffffffffffffffffffffffffffff1690508073ffffffffffffffffffffffffffffffffffffffff166301333f066000604051602001526040518163ffffffff167c0100000000000000000000000000000000000000000000000000000000028152600401602060405180830381600087803b15156107d757600080fd5b6102c65a03f115156107e857600080fd5b5050506040518051905092505050919050565b60008061080783610864565b905061081281611c49565b151561081d57600080fd5b60016000826000191660001916815260200190815260200160002060010160009054906101000a900473ffffffffffffffffffffffffffffffffffffffff16915050919050565b600061086f82611c7e565b9050919050565b60008061088283610864565b905061088d81611c49565b915050919050565b6000806108a183610864565b90506108ac81611c49565b15156108b757600080fd5b60016000826000191660001916815260200190815260200160002060020154915050919050565b60003073ffffffffffffffffffffffffffffffffffffffff1631905090565b60008060008061090b611c8f565b349250823373ffffffffffffffffffffffffffffffffffffffff163111151561093357600080fd5b61093c85610864565b915061094782611c49565b151561095257600080fd5b60016000836000191660001916815260200190815260200160002090508060010160009054906101000a900473ffffffffffffffffffffffffffffffffffffffff1673ffffffffffffffffffffffffffffffffffffffff163373ffffffffffffffffffffffffffffffffffffffff16141515156109ce57600080fd5b8060010160009054906101000a900473ffffffffffffffffffffffffffffffffffffffff1673ffffffffffffffffffffffffffffffffffffffff166108fc849081150290604051600060405180830381858888f193505050501515610a3257600080fd5b7fdb691f7349e922e42e997d390d554de8fdd8e805d319f85873f24fdcd7f345bd85846040518080602001838152602001828103825284818151815260200191508051906020019080838360005b83811015610a9b578082015181840152602081019050610a80565b50505050905090810190601f168015610ac85780820380516001836020036101000a031916815260200191505b50935050505060405180910390a1610ade611cc4565b60019350505050919050565b6000806000610af885610864565b915060026000836000191660001916815260200190815260200160002060009054906101000a900473ffffffffffffffffffffffffffffffffffffffff1690508073ffffffffffffffffffffffffffffffffffffffff166313b9b598856000604051602001526040518263ffffffff167c0100000000000000000000000000000000000000000000000000000000028152600401808273ffffffffffffffffffffffffffffffffffffffff1673ffffffffffffffffffffffffffffffffffffffff168152602001915050602060405180830381600087803b1515610bdb57600080fd5b6102c65a03f11515610bec57600080fd5b505050604051805190509250505092915050565b600080600080610c0e611c8f565b610c1785610864565b925060026000846000191660001916815260200190815260200160002060009054906101000a900473ffffffffffffffffffffffffffffffffffffffff1691508173ffffffffffffffffffffffffffffffffffffffff166301333f066000604051602001526040518163ffffffff167c0100000000000000000000000000000000000000000000000000000000028152600401602060405180830381600087803b1515610cc357600080fd5b6102c65a03f11515610cd457600080fd5b5050506040518051905073ffffffffffffffffffffffffffffffffffffffff163373ffffffffffffffffffffffffffffffffffffffff1614151515610d1857600080fd5b8173ffffffffffffffffffffffffffffffffffffffff16637571af22336000604051602001526040518263ffffffff167c0100000000000000000000000000000000000000000000000000000000028152600401808273ffffffffffffffffffffffffffffffffffffffff1673ffffffffffffffffffffffffffffffffffffffff168152602001915050602060405180830381600087803b1515610dbb57600080fd5b6102c65a03f11515610dcc57600080fd5b505050604051805190509050600115158273ffffffffffffffffffffffffffffffffffffffff16636c0cbe2460006004336000604051602001526040518463ffffffff167c01000000000000000000000000000000000000000000000000000000000281526004018084151515158152602001836004811115610e4b57fe5b60ff1681526020018273ffffffffffffffffffffffffffffffffffffffff1673ffffffffffffffffffffffffffffffffffffffff1681526020019350505050602060405180830381600087803b1515610ea357600080fd5b6102c65a03f11515610eb457600080fd5b505050604051805190501515141515610ecc57600080fd5b3373ffffffffffffffffffffffffffffffffffffffff166108fc829081150290604051600060405180830381858888f193505050501515610fd7578173ffffffffffffffffffffffffffffffffffffffff166302ccdf9282336000604051602001526040518363ffffffff167c0100000000000000000000000000000000000000000000000000000000028152600401808381526020018273ffffffffffffffffffffffffffffffffffffffff1673ffffffffffffffffffffffffffffffffffffffff16815260200192505050602060405180830381600087803b1515610fb257600080fd5b6102c65a03f11515610fc357600080fd5b5050506040518051905050600093506110bc565b7f49c84347ae48a70e82f37bee9974cf201e08a1c7a64de69d613aaa049c23154285338360405180806020018473ffffffffffffffffffffffffffffffffffffffff1673ffffffffffffffffffffffffffffffffffffffff168152602001838152602001828103825285818151815260200191508051906020019080838360005b83811015611073578082015181840152602081019050611058565b50505050905090810190601f1680156110a05780820380516001836020036101000a031916815260200191505b5094505050505060405180910390a16110b7611cc4565b600193505b505050919050565b60008060006110d1611c8f565b6110da84610864565b92506110e583611c49565b15156110f057600080fd5b60016000846000191660001916815260200190815260200160002060010160009054906101000a900473ffffffffffffffffffffffffffffffffffffffff1673ffffffffffffffffffffffffffffffffffffffff163373ffffffffffffffffffffffffffffffffffffffff161415151561116957600080fd5b61117284611b6b565b3411151561117f57600080fd5b60026000846000191660001916815260200190815260200160002060009054906101000a900473ffffffffffffffffffffffffffffffffffffffff1691503490508173ffffffffffffffffffffffffffffffffffffffff1663056e5e8182336000604051602001526040518363ffffffff167c0100000000000000000000000000000000000000000000000000000000028152600401808381526020018273ffffffffffffffffffffffffffffffffffffffff1673ffffffffffffffffffffffffffffffffffffffff16815260200192505050602060405180830381600087803b151561126b57600080fd5b6102c65a03f1151561127c57600080fd5b50505060405180519050507ffe3fd249b3e57967810cfc2f80ebaf7f2d4e5a05550feb66dea05bf4caab57493334604051808373ffffffffffffffffffffffffffffffffffffffff1673ffffffffffffffffffffffffffffffffffffffff1681526020018281526020019250505060405180910390a16112fa611cc4565b50505050565b600080600080600080611311611c8f565b61131a87610864565b945061132585611c49565b151561133057600080fd5b60016000866000191660001916815260200190815260200160002060010160009054906101000a900473ffffffffffffffffffffffffffffffffffffffff1673ffffffffffffffffffffffffffffffffffffffff163373ffffffffffffffffffffffffffffffffffffffff161415156113a857600080fd5b6113b187611b6b565b9350600092503373ffffffffffffffffffffffffffffffffffffffff166108fc859081150290604051600060405180830381858888f1935050505015611669576113fa8761071d565b915083600160008760001916600019168152602001908152602001600020600201819055508160016000876000191660001916815260200190815260200160002060010160006101000a81548173ffffffffffffffffffffffffffffffffffffffff021916908373ffffffffffffffffffffffffffffffffffffffff16021790555060026000866000191660001916815260200190815260200160002060009054906101000a900473ffffffffffffffffffffffffffffffffffffffff1690508073ffffffffffffffffffffffffffffffffffffffff1663d771563383866040518363ffffffff167c0100000000000000000000000000000000000000000000000000000000028152600401808373ffffffffffffffffffffffffffffffffffffffff1673ffffffffffffffffffffffffffffffffffffffff16815260200182815260200192505050600060405180830381600087803b151561155c57600080fd5b6102c65a03f1151561156d57600080fd5b505050600115158173ffffffffffffffffffffffffffffffffffffffff16636c0cbe2460006002866000604051602001526040518463ffffffff167c010000000000000000000000000000000000000000000000000000000002815260040180841515151581526020018360048111156115e357fe5b60ff1681526020018273ffffffffffffffffffffffffffffffffffffffff1673ffffffffffffffffffffffffffffffffffffffff1681526020019350505050602060405180830381600087803b151561163b57600080fd5b6102c65a03f1151561164c57600080fd5b50505060405180519050151514151561166457600080fd5b600192505b7fb84de0ce9f19d8eb46a3cc6801ea0d8f9ecace732c5ad98ab7db162a861178d38733848760405180806020018573ffffffffffffffffffffffffffffffffffffffff1673ffffffffffffffffffffffffffffffffffffffff1681526020018473ffffffffffffffffffffffffffffffffffffffff1673ffffffffffffffffffffffffffffffffffffffff168152602001838152602001828103825286818151815260200191508051906020019080838360005b8381101561173857808201518184015260208101905061171d565b50505050905090810190601f1680156117655780820380516001836020036101000a031916815260200191505b509550505050505060405180910390a161177d611cc4565b8295505050505050919050565b60008060008060008061179b611c8f565b6117a487610864565b94506117af85611c49565b1515156117bb57600080fd5b3493506117c784611ce0565b15156117d257600080fd5b600360009054906101000a900473ffffffffffffffffffffffffffffffffffffffff1673ffffffffffffffffffffffffffffffffffffffff166108fc859081150290604051600060405180830381858888f1935050505092506000915082156119ab5761183f8585611d16565b91508361184a611dff565b80828152602001915050604051809103906000f080151561186a57600080fd5b90508060026000876000191660001916815260200190815260200160002060006101000a81548173ffffffffffffffffffffffffffffffffffffffff021916908373ffffffffffffffffffffffffffffffffffffffff1602179055507fc38c48f64ad06d591325c4920e6045be888c277859c36ca00c30c39715634b118785338560405180806020018581526020018473ffffffffffffffffffffffffffffffffffffffff1673ffffffffffffffffffffffffffffffffffffffff16815260200183151515158152602001828103825286818151815260200191508051906020019080838360005b8381101561196d578082015181840152602081019050611952565b50505050905090810190601f16801561199a5780820380516001836020036101000a031916815260200191505b509550505050505060405180910390a15b6119b3611cc4565b8195505050505050919050565b6000806119cb611c8f565b6119d483610864565b90506119df81611c49565b15156119ea57600080fd5b60016000826000191660001916815260200190815260200160002060010160009054906101000a900473ffffffffffffffffffffffffffffffffffffffff1673ffffffffffffffffffffffffffffffffffffffff163373ffffffffffffffffffffffffffffffffffffffff16141515611a6257600080fd5b600060016000836000191660001916815260200190815260200160002060020181905550600060016000836000191660001916815260200190815260200160002060030160006101000a81548160ff0219169083151502179055507f6f7b933123152f27898925b8d00192798258480a06889c1bb064db7f415c5493836040518080602001828103825283818151815260200191508051906020019080838360005b83811015611b1f578082015181840152602081019050611b04565b50505050905090810190601f168015611b4c5780820380516001836020036101000a031916815260200191505b509250505060405180910390a1611b61611cc4565b6001915050919050565b6000806000611b7984610864565b915060026000836000191660001916815260200190815260200160002060009054906101000a900473ffffffffffffffffffffffffffffffffffffffff1690508073ffffffffffffffffffffffffffffffffffffffff16639d1b464a6000604051602001526040518163ffffffff167c0100000000000000000000000000000000000000000000000000000000028152600401602060405180830381600087803b1515611c2557600080fd5b6102c65a03f11515611c3657600080fd5b5050506040518051905092505050919050565b600060016000836000191660001916815260200190815260200160002060030160009054906101000a900460ff169050919050565b600060208201519050809050919050565b6000809054906101000a900460ff1615611ca857600080fd5b60016000806101000a81548160ff021916908315150217905550565b60008060006101000a81548160ff021916908315150217905550565b600066038d7ea4c68000821080611cfe5750678ac7230489e8000082115b15611d0c5760009050611d11565b600190505b919050565b60008260016000856000191660001916815260200190815260200160002060000181600019169055503360016000856000191660001916815260200190815260200160002060010160006101000a81548173ffffffffffffffffffffffffffffffffffffffff021916908373ffffffffffffffffffffffffffffffffffffffff16021790555081600160008560001916600019168152602001908152602001600020600201819055506001806000856000191660001916815260200190815260200160002060030160006101000a81548160ff0219169083151502179055506001905092915050565b60405161104980611e108339019056006060604052341561000f57600080fd5b604051602080611049833981016040528080519060200190919050508060008190555060018060006101000a81548160ff0219169083600281111561005057fe5b021790555050610fe4806100656000396000f3006060604052600436106100af576000357c0100000000000000000000000000000000000000000000000000000000900463ffffffff16806301333f06146100b457806302ccdf9214610109578063056e5e811461016357806313b9b598146101bd57806356e9e79a1461020a5780636c0cbe24146102835780637571af22146102eb5780637fe01ab9146103385780639d1b464a14610385578063c19d93fb146103ae578063d7715633146103e5575b600080fd5b34156100bf57600080fd5b6100c7610427565b604051808273ffffffffffffffffffffffffffffffffffffffff1673ffffffffffffffffffffffffffffffffffffffff16815260200191505060405180910390f35b341561011457600080fd5b610149600480803590602001909190803573ffffffffffffffffffffffffffffffffffffffff1690602001909190505061044d565b604051808215151515815260200191505060405180910390f35b341561016e57600080fd5b6101a3600480803590602001909190803573ffffffffffffffffffffffffffffffffffffffff16906020019091905050610538565b604051808215151515815260200191505060405180910390f35b34156101c857600080fd5b6101f4600480803573ffffffffffffffffffffffffffffffffffffffff169060200190919050506106b8565b6040518082815260200191505060405180910390f35b341561021557600080fd5b610241600480803573ffffffffffffffffffffffffffffffffffffffff1690602001909190505061083e565b604051808273ffffffffffffffffffffffffffffffffffffffff1673ffffffffffffffffffffffffffffffffffffffff16815260200191505060405180910390f35b341561028e57600080fd5b6102d16004808035151590602001909190803560ff1690602001909190803573ffffffffffffffffffffffffffffffffffffffff16906020019091905050610871565b604051808215151515815260200191505060405180910390f35b34156102f657600080fd5b610322600480803573ffffffffffffffffffffffffffffffffffffffff16906020019091905050610b51565b6040518082815260200191505060405180910390f35b341561034357600080fd5b61036f600480803573ffffffffffffffffffffffffffffffffffffffff16906020019091905050610b9a565b6040518082815260200191505060405180910390f35b341561039057600080fd5b610398610bb2565b6040518082815260200191505060405180910390f35b34156103b957600080fd5b6103c1610bb8565b604051808260028111156103d157fe5b60ff16815260200191505060405180910390f35b34156103f057600080fd5b610425600480803573ffffffffffffffffffffffffffffffffffffffff16906020019091908035906020019091905050610bcb565b005b600460009054906101000a900473ffffffffffffffffffffffffffffffffffffffff1681565b600080838361045a610c1c565b808381526020018273ffffffffffffffffffffffffffffffffffffffff1673ffffffffffffffffffffffffffffffffffffffff16815260200192505050604051809103906000f08015156104ad57600080fd5b905080600260008573ffffffffffffffffffffffffffffffffffffffff1673ffffffffffffffffffffffffffffffffffffffff16815260200190815260200160002060006101000a81548173ffffffffffffffffffffffffffffffffffffffff021916908373ffffffffffffffffffffffffffffffffffffffff160217905550600191505092915050565b6000808383610545610c1c565b808381526020018273ffffffffffffffffffffffffffffffffffffffff1673ffffffffffffffffffffffffffffffffffffffff16815260200192505050604051809103906000f080151561059857600080fd5b905080600260008573ffffffffffffffffffffffffffffffffffffffff1673ffffffffffffffffffffffffffffffffffffffff16815260200190815260200160002060006101000a81548173ffffffffffffffffffffffffffffffffffffffff021916908373ffffffffffffffffffffffffffffffffffffffff16021790555083600360008573ffffffffffffffffffffffffffffffffffffffff1673ffffffffffffffffffffffffffffffffffffffff168152602001908152602001600020600082825401925050819055508360008190555082600460006101000a81548173ffffffffffffffffffffffffffffffffffffffff021916908373ffffffffffffffffffffffffffffffffffffffff160217905550600191505092915050565b600080600260008473ffffffffffffffffffffffffffffffffffffffff1673ffffffffffffffffffffffffffffffffffffffff16815260200190815260200160002060009054906101000a900473ffffffffffffffffffffffffffffffffffffffff1690508073ffffffffffffffffffffffffffffffffffffffff1663267c4ae46000604051602001526040518163ffffffff167c0100000000000000000000000000000000000000000000000000000000028152600401602060405180830381600087803b151561078957600080fd5b6102c65a03f1151561079a57600080fd5b5050506040518051905015156107af57600080fd5b8073ffffffffffffffffffffffffffffffffffffffff1663aa8c217c6000604051602001526040518163ffffffff167c0100000000000000000000000000000000000000000000000000000000028152600401602060405180830381600087803b151561081b57600080fd5b6102c65a03f1151561082c57600080fd5b50505060405180519050915050919050565b60026020528060005260406000206000915054906101000a900473ffffffffffffffffffffffffffffffffffffffff1681565b600080600260008473ffffffffffffffffffffffffffffffffffffffff1673ffffffffffffffffffffffffffffffffffffffff16815260200190815260200160002060009054906101000a900473ffffffffffffffffffffffffffffffffffffffff169050600115158173ffffffffffffffffffffffffffffffffffffffff1663267c4ae46000604051602001526040518163ffffffff167c0100000000000000000000000000000000000000000000000000000000028152600401602060405180830381600087803b151561094657600080fd5b6102c65a03f1151561095757600080fd5b50505060405180519050151514151561096f57600080fd5b8273ffffffffffffffffffffffffffffffffffffffff168173ffffffffffffffffffffffffffffffffffffffff16638da5cb5b6000604051602001526040518163ffffffff167c0100000000000000000000000000000000000000000000000000000000028152600401602060405180830381600087803b15156109f257600080fd5b6102c65a03f11515610a0357600080fd5b5050506040518051905073ffffffffffffffffffffffffffffffffffffffff16141515610a2f57600080fd5b8073ffffffffffffffffffffffffffffffffffffffff166356de96db856040518263ffffffff167c010000000000000000000000000000000000000000000000000000000002815260040180826004811115610a8757fe5b60ff168152602001915050600060405180830381600087803b1515610aab57600080fd5b6102c65a03f11515610abc57600080fd5b5050508073ffffffffffffffffffffffffffffffffffffffff1663592056a8866040518263ffffffff167c01000000000000000000000000000000000000000000000000000000000281526004018082151515158152602001915050600060405180830381600087803b1515610b3157600080fd5b6102c65a03f11515610b4257600080fd5b50505060019150509392505050565b6000600360008373ffffffffffffffffffffffffffffffffffffffff1673ffffffffffffffffffffffffffffffffffffffff168152602001908152602001600020549050919050565b60036020528060005260406000206000915090505481565b60005481565b600160009054906101000a900460ff1681565b80600360008473ffffffffffffffffffffffffffffffffffffffff1673ffffffffffffffffffffffffffffffffffffffff168152602001908152602001600020600082825403925050819055505050565b60405161038c80610c2d8339019056006060604052341561000f57600080fd5b60405160408061038c833981016040528080519060200190919080519060200190919050508160008190555080600160026101000a81548173ffffffffffffffffffffffffffffffffffffffff021916908373ffffffffffffffffffffffffffffffffffffffff16021790555060018060006101000a81548160ff0219169083600481111561009a57fe5b021790555060018060016101000a81548160ff02191690831515021790555050506102c2806100ca6000396000f300606060405260043610610083576000357c0100000000000000000000000000000000000000000000000000000000900463ffffffff1680631865c57d14610088578063267c4ae4146100bf57806356de96db146100ec578063592056a8146101125780638da5cb5b14610137578063aa8c217c1461018c578063c19d93fb146101b5575b600080fd5b341561009357600080fd5b61009b6101ec565b604051808260048111156100ab57fe5b60ff16815260200191505060405180910390f35b34156100ca57600080fd5b6100d2610203565b604051808215151515815260200191505060405180910390f35b34156100f757600080fd5b610110600480803560ff16906020019091905050610215565b005b341561011d57600080fd5b6101356004808035151590602001909190505061023b565b005b341561014257600080fd5b61014a610257565b604051808273ffffffffffffffffffffffffffffffffffffffff1673ffffffffffffffffffffffffffffffffffffffff16815260200191505060405180910390f35b341561019757600080fd5b61019f61027d565b6040518082815260200191505060405180910390f35b34156101c057600080fd5b6101c8610283565b604051808260048111156101d857fe5b60ff16815260200191505060405180910390f35b6000600160009054906101000a900460ff16905090565b6001809054906101000a900460ff1681565b80600160006101000a81548160ff0219169083600481111561023357fe5b021790555050565b806001806101000a81548160ff02191690831515021790555050565b600160029054906101000a900473ffffffffffffffffffffffffffffffffffffffff1681565b60005481565b600160009054906101000a900460ff16815600a165627a7a7230582033885f341c39ea59c81e82660e7004a07a4da8e4ed3d6f6d9816cb23d98b5bf60029a165627a7a723058208a625b3a9b86d6d59cba2bf26d21b78473f0d8afaf3330d8314d164d316c11e20029a165627a7a723058205dbd2ea6fff363993e0f914a4c4e0b1c1ad85a546e2f9a1f6739b6d85aae32990029",
  "source": "pragma solidity ^0.4.18;\r\n\r\nimport './Util.sol';\r\nimport './ProtectReEntry.sol';\r\nimport './BidContainer.sol';\r\nimport './Library.sol';\r\n\r\n\r\n/**\r\n * Author Hitesh Joshi\r\n * Reserve a Name\r\n * Bid on names\r\n * New Bid has to greater than the last Bid\r\n * Send money through DNS names\r\n * Accept Bids and transfer ownership\r\n * Initial reservation fee goes to DNS Creator \r\n * Initial fee has to be atleast 100 finney and capped at 10 Ether\r\n * \r\n */ \r\n\r\ncontract DNSRegistry is Util, ProtectReEntry {\r\n     \r\n     // using Library for Library.DNSName;\r\n     mapping (bytes32 => Library.DNSName) dnsNameMap;\r\n    \r\n     // every Name has a Bid map  containig all bids for the map\r\n     mapping (bytes32 => BidContainer) bidContainerMap;\r\n    \r\n     uint constant MINIMUM_NAME_LENGTH = 2;\r\n     uint constant MAX_NAME_LENGTH = 25;\r\n    \r\n     //Initial fee tx goes to contract creator\r\n     address registryOwner;\r\n    \r\n     // events\r\n     event DnsCreatedEvent(address _owner);\r\n     event ReserveNameEvent(string _name , uint _reserveNameFee,\r\n        address _reservedBy, bool _success);\r\n     event EtherSentToNameEvent(string _name, uint _amount);\r\n     event ReleasedOwnershipEvent(string _name);\r\n     event HighestBidIncreasedEvent(address bidder, uint price);\r\n\t event BidWithdrawnEvent(string _name,address _bidder, uint _withdrawnAmount);\r\n\t event BidAcceptedEvent(string _name,address _oldOwner, \r\n        address newOwner,uint latestPrice);  \r\n     \r\n    \r\n     // constructor\r\n    function DNSRegistry() public {\r\n        registryOwner = msg.sender;\r\n        DnsCreatedEvent(msg.sender);\r\n    }\r\n    \r\n    /**\r\n      * Public Member to check Name Availability\r\n      * \r\n      */\r\n    function checkNameExists(string _name) public view\r\n        returns(bool _exists)\r\n        {\r\n         bytes32 name = toBytes32(_name);\r\n         return hasOwner(name);\r\n     }\r\n     \r\n    function hasOwner(bytes32 _name) internal view returns (bool _nameExists) {\r\n        return dnsNameMap[_name].exists;\r\n     }\r\n\r\n      \r\n    /**\r\n     * Reserving a Name for the first Time\r\n     * Can reserve a name that is not reserved yet\r\n     * Atleast 100 finney reservation fee, capped at 10 Ether\r\n     * Name should be minLength = 2 and maxLength = 25\r\n     * Case sensitive\r\n     * Only () _ - ! .  are allowed in the name\r\n     */ \r\n    function reserveName(string _name) \r\n           public payable returns(bool success)  \r\n         {\r\n         externalEnter();     \r\n        //  require(validateName(_name) == true);   \r\n         bytes32 name = toBytes32(_name); \r\n         // check again even if you checked using checkNameAvailability\r\n         // do not use throw(deprecated) or assert be good devs\r\n         require(!hasOwner(name)); \r\n         uint reserveNameFee = msg.value;\r\n         // TODO commented the check for init fee as  test case is failing \r\n         require(validateDNSNameProposal(reserveNameFee));\r\n        \r\n         // if pre cond are good, send some love to the developer\r\n         bool sentOk = registryOwner.send(reserveNameFee);\r\n         // love shown to the developer\r\n         bool created = false;\r\n         if (sentOk) {\r\n            created = createNewDNSEntry(name,reserveNameFee);\r\n            // create the BidContainer\r\n            BidContainer bidContainer = new BidContainer(reserveNameFee);\r\n            // add the first bid\r\n            bidContainerMap[name] = bidContainer;\r\n            ReserveNameEvent(_name, reserveNameFee, msg.sender, created);\r\n         }\r\n         externalLeave();\r\n         return created;\r\n     }\r\n      \r\n      // function to check name, initial fee has to be atleast 0.1 Ether \r\n    function validateDNSNameProposal(\r\n         uint _reserveNameFee\r\n       ) pure internal returns (bool) \r\n        {\r\n        // conscientious developer - setting upper limit to 10 ether\r\n        if (_reserveNameFee < 1 finney ||\r\n            _reserveNameFee > 10 ether) {\r\n            return false;\r\n        }        \r\n        return true;\r\n     }\r\n    \r\n     // create the actual DNS entry - private curb inheritance\r\n    function createNewDNSEntry(bytes32 _name, uint _reserveNameFee) private\r\n      returns (bool _created)\r\n     {\r\n       dnsNameMap[_name].name = _name;\r\n       dnsNameMap[_name].owner = msg.sender;\r\n       dnsNameMap[_name].price = _reserveNameFee; \r\n       dnsNameMap[_name].exists = true;\r\n       return true;\r\n     }\r\n     /**\r\n      * Send Dough to a Name using the registry\r\n      */\r\n    function sendEtherToName(string _name) public payable returns (bool) {\r\n        externalEnter();\r\n        uint amount = msg.value;\r\n         require(msg.sender.balance > amount);\r\n         bytes32 name = toBytes32(_name); \r\n         require(hasOwner(name));\r\n         Library.DNSName storage dnsName = dnsNameMap[name];\r\n         require(msg.sender != dnsName.owner);\r\n         dnsName.owner.transfer(amount);\r\n         EtherSentToNameEvent(_name,amount);\r\n         externalLeave();\r\n         return true;\r\n     }\r\n     /**\r\n      * Function to Bid on a name\r\n      * Can bid only on acquired names\r\n      * Owner cannot bid on his own name - no artificial inflation of price\r\n      * Bids should be higher than the highest bid received so far\r\n      */ \r\n    function bid(string _name) public payable {\r\n        externalEnter();\r\n        bytes32  name = toBytes32(_name); \r\n        // name should be owned by someone before you bid\r\n        require(hasOwner(name));\r\n        // can't bid on your own name \r\n        require(msg.sender != dnsNameMap[name].owner);\r\n        \r\n        // current bid has to be higher than last\r\n        require(msg.value > getHighestBidSoFar(_name));\r\n        \r\n        BidContainer bidContainer = bidContainerMap[name];\r\n        uint bidPrice = msg.value;\r\n        bidContainer.addBid(bidPrice,msg.sender);\r\n        HighestBidIncreasedEvent(msg.sender,msg.value);\r\n        externalLeave();\r\n     }\r\n   \r\n     /**\r\n      * View function to get the Highest bid for a name\r\n      */\r\n    function getHighestBidSoFar(string _name) public view \r\n      returns(uint bidPrice)\r\n       {\r\n         bytes32  name = toBytes32(_name);\r\n       // find the BidContainer for this name\r\n       BidContainer bidContainer = bidContainerMap[name];\r\n       return bidContainer.currentPrice();\r\n     }\r\n     \r\n    function getHighestBidder(string _name) public view\r\n        returns(address bidder)\r\n        {\r\n       bytes32  name = toBytes32(_name);\r\n       // find the BidContainer for this name\r\n       BidContainer bidContainer = bidContainerMap[name];\r\n       return bidContainer.topBidder();\r\n     }\r\n     \r\n    function getBidValue(string _name,address _address) public constant\r\n        returns(uint bidval)\r\n       {\r\n       bytes32  name = toBytes32(_name);\r\n       // find the BidContainer for this name\r\n       BidContainer bidContainer = bidContainerMap[name];\r\n       return bidContainer.getBidAmount(_address);\r\n     }\r\n     \r\n     /**\r\n      * Withdraws a bid on a name \r\n      * Only allows withdrawls if you current bid is not top bid\r\n      * Allows to withdraw all previous overbidden bids\r\n      */ \r\n     \r\n    function withdrawOverBiddenBid(string _name) public returns(bool done) {\r\n        externalEnter();\r\n        bytes32  name = toBytes32(_name);\r\n        BidContainer bidContainer = bidContainerMap[name];\r\n        //require(bidContainer.state() == Library.BidContainerState.ACTIVE);\r\n        \r\n        // if he is not a top Bidder let him withdraw\r\n        require(msg.sender != bidContainer.topBidder());\r\n        \r\n        // get all amount for sender\r\n        uint amount = bidContainer.getPendingAmount(msg.sender);\r\n        \r\n        // set Bid exists to false\r\n        require(bidContainer.setBidState(false,\r\n          Library.BidStates.WITHDRAWN, msg.sender) == true);\r\n        \r\n        // send amount back\r\n        if (!msg.sender.send(amount)) {\r\n                // if amount sending failed, create a new bid \r\n                // as we have canceled the old one\r\n                bidContainer.addDefunctBid(amount, msg.sender);\r\n                return false;\r\n            }\r\n            BidWithdrawnEvent(_name, msg.sender, amount);\r\n            externalLeave();\r\n            return true;\r\n      }\r\n\t  \r\n\t   /**\r\n\t   * Owner accepts a bid \r\n\t   * Ether equal to winning bid is transferred to owner account\r\n\t   * ownership changes hands\r\n\t   * Winners bid balance is adjusted \r\n\t   */ \r\n\tfunction acceptBidAndTransferOwnerShip(string _name) public\r\n         returns(bool transferred)\r\n         {\r\n         externalEnter();\r\n         bytes32  name = toBytes32(_name);\r\n         // check owner exists\r\n         require(hasOwner(name));\r\n         // only owner can accept bids\r\n         require(msg.sender == dnsNameMap[name].owner);\r\n         \r\n         // get the highest bid\r\n         uint winningBid = getHighestBidSoFar(_name);\r\n         // get the highest Bidder\r\n         bool isPayed = false;\r\n         // transfer Dough\r\n         // if success, transfer ownserhip\r\n           if (msg.sender.send(winningBid)) {\r\n              \r\n           address winningBidder = getHighestBidder(_name);\r\n           dnsNameMap[name].price = winningBid;\r\n           dnsNameMap[name].owner = winningBidder;\r\n           BidContainer bidContainer = bidContainerMap[name];\r\n           bidContainer.adjustBalanceOnWinning(winningBidder,winningBid); \r\n           // remove the winnig bid out of existence\r\n           require(bidContainer.setBidState(false,\r\n           Library.BidStates.ACCEPTED, winningBidder) == true);\r\n           isPayed = true;\r\n           \r\n           }\r\n          BidAcceptedEvent(_name,msg.sender,winningBidder,winningBid); \r\n          externalLeave();\r\n          return isPayed;\r\n        }\r\n     \r\n     \r\n     /**\r\n      * voluntarily release Ownership\r\n      * Not Sure why would anyone release ownership without a bid\r\n      * Unless as an extension later, they have to pay\r\n      * for maintaining their name in DNS\r\n      * constraint - Only owner can release a Name\r\n      */\r\n    function releaseOwnership(string _name) public \r\n        returns (bool _released) \r\n        {\r\n        externalEnter();    \r\n         bytes32  name = toBytes32(_name); \r\n         require(hasOwner(name));\r\n         // only owner can release ownership\r\n         require(msg.sender == dnsNameMap[name].owner);\r\n         dnsNameMap[name].price = 0; \r\n         dnsNameMap[name].exists = false;\r\n         ReleasedOwnershipEvent(_name);\r\n         externalLeave();\r\n         return true;\r\n     }\r\n\r\n     function checkNamePrice(string _name) public view returns(uint) {\r\n         bytes32  name = toBytes32(_name); \r\n         require(hasOwner(name));\r\n         return dnsNameMap[name].price;         \r\n     }\r\n\r\n     function getCurrentOwnerOfName(string _name) public view returns(address) {\r\n        bytes32  name = toBytes32(_name); \r\n         require(hasOwner(name));\r\n         return dnsNameMap[name].owner;    \r\n     }\r\n\r\n     /**\r\n      * Get total bid money held by contract\r\n      * Helps to test if the bids are repatraited correctly\r\n      */\r\n     function getTotalEtherHeldInContract() public view returns (uint) {\r\n         return this.balance;\r\n     }\r\n    \r\n    function validateName(string _name) pure internal \r\n       returns (bool allowed) \r\n       {\r\n        bytes memory nameBytes = bytes(_name);\r\n       \r\n        uint lengthBytes = nameBytes.length;\r\n        if (lengthBytes < MINIMUM_NAME_LENGTH ||\r\n            lengthBytes > MAX_NAME_LENGTH) {\r\n            return false;\r\n        }\r\n        bool foundNonPunctuation = false;\r\n        for (uint i = 0; i < lengthBytes; i++) {\r\n            byte b = nameBytes[i];\r\n            if (\r\n                // 0 - 9\r\n                // A - Z\r\n                // a - z \r\n                (b >= 48 && b <= 57) || (b >= 65 && b <= 90) || (b >= 97 && b <= 122)\r\n            ) {\r\n                foundNonPunctuation = true;\r\n                continue;\r\n            }\r\n            if (\r\n                // space\r\n                // !\r\n                // (\r\n                // )\r\n                // -\r\n                // .\r\n                // _\r\n                b == 32 || b == 33 || b == 40 || b == 41 || b == 45 || b == 46 || b == 95    \r\n            ) {\r\n                continue;\r\n            }\r\n            return false;\r\n        }\r\n        return foundNonPunctuation;\r\n    }\r\n}",
  "sourcePath": "C:\\truffle\\truffle_angular\\contracts\\DNSRegistry.sol",
  "compiler": {
    "name": "solc",
    "version": "0.4.19+commit.c4cbbb05.Emscripten.clang"
  },
  "schemaVersion": "1.0.1",
  "updatedAt": "2018-02-10T17:09:11.013Z"
}