{
  "contractName": "DNSRegistry",
  "abi": [
    {
      "constant": true,
      "inputs": [
        {
          "name": "source",
          "type": "string"
        }
      ],
      "name": "toBytes32",
      "outputs": [
        {
          "name": "",
          "type": "bytes32"
        }
      ],
      "payable": false,
      "stateMutability": "pure",
      "type": "function"
    },
    {
      "inputs": [],
      "payable": false,
      "stateMutability": "nonpayable",
      "type": "constructor"
    },
    {
      "anonymous": false,
      "inputs": [
        {
          "indexed": false,
          "name": "_owner",
          "type": "address"
        }
      ],
      "name": "DnsCreatedEvent",
      "type": "event"
    },
    {
      "anonymous": false,
      "inputs": [
        {
          "indexed": false,
          "name": "_name",
          "type": "string"
        },
        {
          "indexed": false,
          "name": "_reserveNameFee",
          "type": "uint256"
        },
        {
          "indexed": false,
          "name": "_reservedBy",
          "type": "address"
        },
        {
          "indexed": false,
          "name": "_success",
          "type": "bool"
        }
      ],
      "name": "ReserveNameEvent",
      "type": "event"
    },
    {
      "anonymous": false,
      "inputs": [
        {
          "indexed": false,
          "name": "_name",
          "type": "string"
        },
        {
          "indexed": false,
          "name": "_amount",
          "type": "uint256"
        }
      ],
      "name": "EtherSentToNameEvent",
      "type": "event"
    },
    {
      "anonymous": false,
      "inputs": [
        {
          "indexed": false,
          "name": "_name",
          "type": "string"
        }
      ],
      "name": "ReleasedOwnershipEvent",
      "type": "event"
    },
    {
      "anonymous": false,
      "inputs": [
        {
          "indexed": false,
          "name": "bidder",
          "type": "address"
        },
        {
          "indexed": false,
          "name": "price",
          "type": "uint256"
        }
      ],
      "name": "HighestBidIncreasedEvent",
      "type": "event"
    },
    {
      "anonymous": false,
      "inputs": [
        {
          "indexed": false,
          "name": "_name",
          "type": "string"
        },
        {
          "indexed": false,
          "name": "_bidder",
          "type": "address"
        },
        {
          "indexed": false,
          "name": "_withdrawnAmount",
          "type": "uint256"
        }
      ],
      "name": "BidWithdrawnEvent",
      "type": "event"
    },
    {
      "anonymous": false,
      "inputs": [
        {
          "indexed": false,
          "name": "_name",
          "type": "string"
        },
        {
          "indexed": false,
          "name": "_oldOwner",
          "type": "address"
        },
        {
          "indexed": false,
          "name": "newOwner",
          "type": "address"
        },
        {
          "indexed": false,
          "name": "latestPrice",
          "type": "uint256"
        }
      ],
      "name": "BidAcceptedEvent",
      "type": "event"
    },
    {
      "constant": true,
      "inputs": [
        {
          "name": "_name",
          "type": "string"
        }
      ],
      "name": "checkNameExists",
      "outputs": [
        {
          "name": "_exists",
          "type": "bool"
        }
      ],
      "payable": false,
      "stateMutability": "view",
      "type": "function"
    },
    {
      "constant": false,
      "inputs": [
        {
          "name": "_name",
          "type": "string"
        }
      ],
      "name": "reserveName",
      "outputs": [
        {
          "name": "success",
          "type": "bool"
        }
      ],
      "payable": true,
      "stateMutability": "payable",
      "type": "function"
    },
    {
      "constant": false,
      "inputs": [
        {
          "name": "_name",
          "type": "string"
        }
      ],
      "name": "sendEtherToName",
      "outputs": [
        {
          "name": "",
          "type": "bool"
        }
      ],
      "payable": true,
      "stateMutability": "payable",
      "type": "function"
    },
    {
      "constant": false,
      "inputs": [
        {
          "name": "_name",
          "type": "string"
        }
      ],
      "name": "bid",
      "outputs": [],
      "payable": true,
      "stateMutability": "payable",
      "type": "function"
    },
    {
      "constant": true,
      "inputs": [
        {
          "name": "_name",
          "type": "string"
        }
      ],
      "name": "getHighestBidSoFar",
      "outputs": [
        {
          "name": "bidPrice",
          "type": "uint256"
        }
      ],
      "payable": false,
      "stateMutability": "view",
      "type": "function"
    },
    {
      "constant": true,
      "inputs": [
        {
          "name": "_name",
          "type": "string"
        }
      ],
      "name": "getHighestBidder",
      "outputs": [
        {
          "name": "bidder",
          "type": "address"
        }
      ],
      "payable": false,
      "stateMutability": "view",
      "type": "function"
    },
    {
      "constant": true,
      "inputs": [
        {
          "name": "_name",
          "type": "string"
        },
        {
          "name": "_address",
          "type": "address"
        }
      ],
      "name": "getBidValue",
      "outputs": [
        {
          "name": "bidval",
          "type": "uint256"
        }
      ],
      "payable": false,
      "stateMutability": "view",
      "type": "function"
    },
    {
      "constant": false,
      "inputs": [
        {
          "name": "_name",
          "type": "string"
        }
      ],
      "name": "withdrawOverBiddenBid",
      "outputs": [
        {
          "name": "done",
          "type": "bool"
        }
      ],
      "payable": false,
      "stateMutability": "nonpayable",
      "type": "function"
    },
    {
      "constant": false,
      "inputs": [
        {
          "name": "_name",
          "type": "string"
        }
      ],
      "name": "acceptBidAndTransferOwnerShip",
      "outputs": [
        {
          "name": "transferred",
          "type": "bool"
        }
      ],
      "payable": false,
      "stateMutability": "nonpayable",
      "type": "function"
    },
    {
      "constant": false,
      "inputs": [
        {
          "name": "_name",
          "type": "string"
        }
      ],
      "name": "releaseOwnership",
      "outputs": [
        {
          "name": "_released",
          "type": "bool"
        }
      ],
      "payable": false,
      "stateMutability": "nonpayable",
      "type": "function"
    },
    {
      "constant": true,
      "inputs": [
        {
          "name": "_name",
          "type": "string"
        }
      ],
      "name": "checkNamePrice",
      "outputs": [
        {
          "name": "",
          "type": "uint256"
        }
      ],
      "payable": false,
      "stateMutability": "view",
      "type": "function"
    },
    {
      "constant": true,
      "inputs": [
        {
          "name": "_name",
          "type": "string"
        }
      ],
      "name": "getCurrentOwnerOfName",
      "outputs": [
        {
          "name": "",
          "type": "address"
        }
      ],
      "payable": false,
      "stateMutability": "view",
      "type": "function"
    },
    {
      "constant": true,
      "inputs": [],
      "name": "getTotalEtherHeldInContract",
      "outputs": [
        {
          "name": "",
          "type": "uint256"
        }
      ],
      "payable": false,
      "stateMutability": "view",
      "type": "function"
    }
  ],
  "bytecode": "0x608060405234801561001057600080fd5b5033600360006101000a81548173ffffffffffffffffffffffffffffffffffffffff021916908373ffffffffffffffffffffffffffffffffffffffff1602179055507f59e58229fbdadfef872ed7eec38e542c49020d16796c9d679d72f20885a46d2333604051808273ffffffffffffffffffffffffffffffffffffffff1673ffffffffffffffffffffffffffffffffffffffff16815260200191505060405180910390a161312e806100c46000396000f3006080604052600436106100d0576000357c0100000000000000000000000000000000000000000000000000000000900463ffffffff1680630c25648f146100d55780631da3b0881461017e57806327df8f2a146102275780632ae09c68146102ac57806336918a571461032d5780633f029689146103aa5780635d8468ea146103d55780635f28d32914610449578063760f8559146104e65780637aef951c14610567578063a11165a6146105c3578063ca18b9e214610644578063cda146d8146106b8578063d829af5e14610739575b600080fd5b3480156100e157600080fd5b5061013c600480360381019080803590602001908201803590602001908080601f01602080910402602001604051908101604052809392919081815260200183838082843782019150505050505091929192905050506107b6565b604051808273ffffffffffffffffffffffffffffffffffffffff1673ffffffffffffffffffffffffffffffffffffffff16815260200191505060405180910390f35b34801561018a57600080fd5b506101e5600480360381019080803590602001908201803590602001908080601f01602080910402602001604051908101604052809392919081815260200183838082843782019150505050505091929192905050506108ac565b604051808273ffffffffffffffffffffffffffffffffffffffff1673ffffffffffffffffffffffffffffffffffffffff16815260200191505060405180910390f35b34801561023357600080fd5b5061028e600480360381019080803590602001908201803590602001908080601f0160208091040260200160405190810160405280939291908181526020018383808284378201915050505050509192919290505050610915565b60405180826000191660001916815260200191505060405180910390f35b3480156102b857600080fd5b50610313600480360381019080803590602001908201803590602001908080601f0160208091040260200160405190810160405280939291908181526020018383808284378201915050505050509192919290505050610927565b604051808215151515815260200191505060405180910390f35b34801561033957600080fd5b50610394600480360381019080803590602001908201803590602001908080601f0160208091040260200160405190810160405280939291908181526020018383808284378201915050505050509192919290505050610946565b6040518082815260200191505060405180910390f35b3480156103b657600080fd5b506103bf6109b3565b6040518082815260200191505060405180910390f35b61042f600480360381019080803590602001908201803590602001908080601f01602080910402602001604051908101604052809392919081815260200183838082843782019150505050505091929192905050506109d2565b604051808215151515815260200191505060405180910390f35b34801561045557600080fd5b506104d0600480360381019080803590602001908201803590602001908080601f0160208091040260200160405190810160405280939291908181526020018383808284378201915050505050509192919290803573ffffffffffffffffffffffffffffffffffffffff169060200190929190505050610bc6565b6040518082815260200191505060405180910390f35b3480156104f257600080fd5b5061054d600480360381019080803590602001908201803590602001908080601f0160208091040260200160405190810160405280939291908181526020018383808284378201915050505050509192919290505050610cf4565b604051808215151515815260200191505060405180910390f35b6105c1600480360381019080803590602001908201803590602001908080601f0160208091040260200160405190810160405280939291908181526020018383808284378201915050505050509192919290505050611218565b005b3480156105cf57600080fd5b5061062a600480360381019080803590602001908201803590602001908080601f016020809104026020016040519081016040528093929190818152602001838380828437820191505050505050919291929050505061146c565b604051808215151515815260200191505060405180910390f35b61069e600480360381019080803590602001908201803590602001908080601f0160208091040260200160405190810160405280939291908181526020018383808284378201915050505050509192919290505050611913565b604051808215151515815260200191505060405180910390f35b3480156106c457600080fd5b5061071f600480360381019080803590602001908201803590602001908080601f0160208091040260200160405190810160405280939291908181526020018383808284378201915050505050509192919290505050611b50565b604051808215151515815260200191505060405180910390f35b34801561074557600080fd5b506107a0600480360381019080803590602001908201803590602001908080601f0160208091040260200160405190810160405280939291908181526020018383808284378201915050505050509192919290505050611cfb565b6040518082815260200191505060405180910390f35b60008060006107c484610915565b915060026000836000191660001916815260200190815260200160002060009054906101000a900473ffffffffffffffffffffffffffffffffffffffff1690508073ffffffffffffffffffffffffffffffffffffffff166301333f066040518163ffffffff167c0100000000000000000000000000000000000000000000000000000000028152600401602060405180830381600087803b15801561086857600080fd5b505af115801561087c573d6000803e3d6000fd5b505050506040513d602081101561089257600080fd5b810190808051906020019092919050505092505050919050565b6000806108b883610915565b90506108c381611df1565b15156108ce57600080fd5b60016000826000191660001916815260200190815260200160002060010160009054906101000a900473ffffffffffffffffffffffffffffffffffffffff16915050919050565b600061092082611e26565b9050919050565b60008061093383610915565b905061093e81611df1565b915050919050565b60008060008061095585610915565b925061096083611df1565b151561096b57600080fd5b61097485611cfb565b9150600160008460001916600019168152602001908152602001600020600201549050808211156109a7578193506109ab565b8093505b505050919050565b60003073ffffffffffffffffffffffffffffffffffffffff1631905090565b6000806000806109e0611e37565b349250823373ffffffffffffffffffffffffffffffffffffffff1631111515610a0857600080fd5b610a1185610915565b9150610a1c82611df1565b1515610a2757600080fd5b60016000836000191660001916815260200190815260200160002090508060010160009054906101000a900473ffffffffffffffffffffffffffffffffffffffff1673ffffffffffffffffffffffffffffffffffffffff163373ffffffffffffffffffffffffffffffffffffffff1614151515610aa357600080fd5b8060010160009054906101000a900473ffffffffffffffffffffffffffffffffffffffff1673ffffffffffffffffffffffffffffffffffffffff166108fc849081150290604051600060405180830381858888f19350505050158015610b0d573d6000803e3d6000fd5b507fdb691f7349e922e42e997d390d554de8fdd8e805d319f85873f24fdcd7f345bd85846040518080602001838152602001828103825284818151815260200191508051906020019080838360005b83811015610b77578082015181840152602081019050610b5c565b50505050905090810190601f168015610ba45780820380516001836020036101000a031916815260200191505b50935050505060405180910390a1610bba611e6c565b60019350505050919050565b6000806000610bd485610915565b915060026000836000191660001916815260200190815260200160002060009054906101000a900473ffffffffffffffffffffffffffffffffffffffff1690508073ffffffffffffffffffffffffffffffffffffffff166313b9b598856040518263ffffffff167c0100000000000000000000000000000000000000000000000000000000028152600401808273ffffffffffffffffffffffffffffffffffffffff1673ffffffffffffffffffffffffffffffffffffffff168152602001915050602060405180830381600087803b158015610caf57600080fd5b505af1158015610cc3573d6000803e3d6000fd5b505050506040513d6020811015610cd957600080fd5b81019080805190602001909291905050509250505092915050565b600080600080610d02611e37565b610d0b85610915565b925060026000846000191660001916815260200190815260200160002060009054906101000a900473ffffffffffffffffffffffffffffffffffffffff1691508173ffffffffffffffffffffffffffffffffffffffff166301333f066040518163ffffffff167c0100000000000000000000000000000000000000000000000000000000028152600401602060405180830381600087803b158015610daf57600080fd5b505af1158015610dc3573d6000803e3d6000fd5b505050506040513d6020811015610dd957600080fd5b810190808051906020019092919050505073ffffffffffffffffffffffffffffffffffffffff163373ffffffffffffffffffffffffffffffffffffffff1614151515610e2457600080fd5b8173ffffffffffffffffffffffffffffffffffffffff16637571af22336040518263ffffffff167c0100000000000000000000000000000000000000000000000000000000028152600401808273ffffffffffffffffffffffffffffffffffffffff1673ffffffffffffffffffffffffffffffffffffffff168152602001915050602060405180830381600087803b158015610ebf57600080fd5b505af1158015610ed3573d6000803e3d6000fd5b505050506040513d6020811015610ee957600080fd5b81019080805190602001909291905050509050600115158273ffffffffffffffffffffffffffffffffffffffff16636c0cbe2460006004336040518463ffffffff167c01000000000000000000000000000000000000000000000000000000000281526004018084151515158152602001836004811115610f6657fe5b60ff1681526020018273ffffffffffffffffffffffffffffffffffffffff1673ffffffffffffffffffffffffffffffffffffffff1681526020019350505050602060405180830381600087803b158015610fbf57600080fd5b505af1158015610fd3573d6000803e3d6000fd5b505050506040513d6020811015610fe957600080fd5b8101908080519060200190929190505050151514151561100857600080fd5b3373ffffffffffffffffffffffffffffffffffffffff166108fc829081150290604051600060405180830381858888f19350505050151561112b578173ffffffffffffffffffffffffffffffffffffffff166302ccdf9282336040518363ffffffff167c0100000000000000000000000000000000000000000000000000000000028152600401808381526020018273ffffffffffffffffffffffffffffffffffffffff1673ffffffffffffffffffffffffffffffffffffffff16815260200192505050602060405180830381600087803b1580156110e657600080fd5b505af11580156110fa573d6000803e3d6000fd5b505050506040513d602081101561111057600080fd5b81019080805190602001909291905050505060009350611210565b7f49c84347ae48a70e82f37bee9974cf201e08a1c7a64de69d613aaa049c23154285338360405180806020018473ffffffffffffffffffffffffffffffffffffffff1673ffffffffffffffffffffffffffffffffffffffff168152602001838152602001828103825285818151815260200191508051906020019080838360005b838110156111c75780820151818401526020810190506111ac565b50505050905090810190601f1680156111f45780820380516001836020036101000a031916815260200191505b5094505050505060405180910390a161120b611e6c565b600193505b505050919050565b6000806000611225611e37565b61122e84610915565b925061123983611df1565b151561124457600080fd5b60016000846000191660001916815260200190815260200160002060010160009054906101000a900473ffffffffffffffffffffffffffffffffffffffff1673ffffffffffffffffffffffffffffffffffffffff163373ffffffffffffffffffffffffffffffffffffffff16141515156112bd57600080fd5b6112c684611cfb565b341115156112d357600080fd5b60026000846000191660001916815260200190815260200160002060009054906101000a900473ffffffffffffffffffffffffffffffffffffffff1691503490508173ffffffffffffffffffffffffffffffffffffffff1663056e5e8182336040518363ffffffff167c0100000000000000000000000000000000000000000000000000000000028152600401808381526020018273ffffffffffffffffffffffffffffffffffffffff1673ffffffffffffffffffffffffffffffffffffffff16815260200192505050602060405180830381600087803b1580156113b757600080fd5b505af11580156113cb573d6000803e3d6000fd5b505050506040513d60208110156113e157600080fd5b8101908080519060200190929190505050507ffe3fd249b3e57967810cfc2f80ebaf7f2d4e5a05550feb66dea05bf4caab57493334604051808373ffffffffffffffffffffffffffffffffffffffff1673ffffffffffffffffffffffffffffffffffffffff1681526020018281526020019250505060405180910390a1611466611e6c565b50505050565b60008060008060008061147d611e37565b61148687610915565b945061149185611df1565b151561149c57600080fd5b60016000866000191660001916815260200190815260200160002060010160009054906101000a900473ffffffffffffffffffffffffffffffffffffffff1673ffffffffffffffffffffffffffffffffffffffff163373ffffffffffffffffffffffffffffffffffffffff1614151561151457600080fd5b61151d87611cfb565b9350600092503373ffffffffffffffffffffffffffffffffffffffff166108fc859081150290604051600060405180830381858888f19350505050156117f257611566876107b6565b915083600160008760001916600019168152602001908152602001600020600201819055508160016000876000191660001916815260200190815260200160002060010160006101000a81548173ffffffffffffffffffffffffffffffffffffffff021916908373ffffffffffffffffffffffffffffffffffffffff16021790555060026000866000191660001916815260200190815260200160002060009054906101000a900473ffffffffffffffffffffffffffffffffffffffff1690508073ffffffffffffffffffffffffffffffffffffffff1663d771563383866040518363ffffffff167c0100000000000000000000000000000000000000000000000000000000028152600401808373ffffffffffffffffffffffffffffffffffffffff1673ffffffffffffffffffffffffffffffffffffffff16815260200182815260200192505050600060405180830381600087803b1580156116c957600080fd5b505af11580156116dd573d6000803e3d6000fd5b50505050600115158173ffffffffffffffffffffffffffffffffffffffff16636c0cbe2460006002866040518463ffffffff167c0100000000000000000000000000000000000000000000000000000000028152600401808415151515815260200183600481111561174b57fe5b60ff1681526020018273ffffffffffffffffffffffffffffffffffffffff1673ffffffffffffffffffffffffffffffffffffffff1681526020019350505050602060405180830381600087803b1580156117a457600080fd5b505af11580156117b8573d6000803e3d6000fd5b505050506040513d60208110156117ce57600080fd5b810190808051906020019092919050505015151415156117ed57600080fd5b600192505b7fb84de0ce9f19d8eb46a3cc6801ea0d8f9ecace732c5ad98ab7db162a861178d38733848760405180806020018573ffffffffffffffffffffffffffffffffffffffff1673ffffffffffffffffffffffffffffffffffffffff1681526020018473ffffffffffffffffffffffffffffffffffffffff1673ffffffffffffffffffffffffffffffffffffffff168152602001838152602001828103825286818151815260200191508051906020019080838360005b838110156118c15780820151818401526020810190506118a6565b50505050905090810190601f1680156118ee5780820380516001836020036101000a031916815260200191505b509550505050505060405180910390a1611906611e6c565b8295505050505050919050565b600080600080600080611924611e37565b61192d87610915565b945061193885611df1565b15151561194457600080fd5b34935061195084611e88565b151561195b57600080fd5b600360009054906101000a900473ffffffffffffffffffffffffffffffffffffffff1673ffffffffffffffffffffffffffffffffffffffff166108fc859081150290604051600060405180830381858888f193505050509250600091508215611b3b576119c88585611ebe565b9150836119d3611fa7565b80828152602001915050604051809103906000f0801580156119f9573d6000803e3d6000fd5b5090508060026000876000191660001916815260200190815260200160002060006101000a81548173ffffffffffffffffffffffffffffffffffffffff021916908373ffffffffffffffffffffffffffffffffffffffff1602179055507fc38c48f64ad06d591325c4920e6045be888c277859c36ca00c30c39715634b118785338560405180806020018581526020018473ffffffffffffffffffffffffffffffffffffffff1673ffffffffffffffffffffffffffffffffffffffff16815260200183151515158152602001828103825286818151815260200191508051906020019080838360005b83811015611afd578082015181840152602081019050611ae2565b50505050905090810190601f168015611b2a5780820380516001836020036101000a031916815260200191505b509550505050505060405180910390a15b611b43611e6c565b8195505050505050919050565b600080611b5b611e37565b611b6483610915565b9050611b6f81611df1565b1515611b7a57600080fd5b60016000826000191660001916815260200190815260200160002060010160009054906101000a900473ffffffffffffffffffffffffffffffffffffffff1673ffffffffffffffffffffffffffffffffffffffff163373ffffffffffffffffffffffffffffffffffffffff16141515611bf257600080fd5b600060016000836000191660001916815260200190815260200160002060020181905550600060016000836000191660001916815260200190815260200160002060030160006101000a81548160ff0219169083151502179055507f6f7b933123152f27898925b8d00192798258480a06889c1bb064db7f415c5493836040518080602001828103825283818151815260200191508051906020019080838360005b83811015611caf578082015181840152602081019050611c94565b50505050905090810190601f168015611cdc5780820380516001836020036101000a031916815260200191505b509250505060405180910390a1611cf1611e6c565b6001915050919050565b6000806000611d0984610915565b915060026000836000191660001916815260200190815260200160002060009054906101000a900473ffffffffffffffffffffffffffffffffffffffff1690508073ffffffffffffffffffffffffffffffffffffffff16639d1b464a6040518163ffffffff167c0100000000000000000000000000000000000000000000000000000000028152600401602060405180830381600087803b158015611dad57600080fd5b505af1158015611dc1573d6000803e3d6000fd5b505050506040513d6020811015611dd757600080fd5b810190808051906020019092919050505092505050919050565b600060016000836000191660001916815260200190815260200160002060030160009054906101000a900460ff169050919050565b600060208201519050809050919050565b6000809054906101000a900460ff1615611e5057600080fd5b60016000806101000a81548160ff021916908315150217905550565b60008060006101000a81548160ff021916908315150217905550565b600066038d7ea4c68000821080611ea65750678ac7230489e8000082115b15611eb45760009050611eb9565b600190505b919050565b60008260016000856000191660001916815260200190815260200160002060000181600019169055503360016000856000191660001916815260200190815260200160002060010160006101000a81548173ffffffffffffffffffffffffffffffffffffffff021916908373ffffffffffffffffffffffffffffffffffffffff16021790555081600160008560001916600019168152602001908152602001600020600201819055506001806000856000191660001916815260200190815260200160002060030160006101000a81548160ff0219169083151502179055506001905092915050565b60405161114b80611fb8833901905600608060405234801561001057600080fd5b5060405160208061114b833981018060405281019080805190602001909291905050508060008190555060018060006101000a81548160ff0219169083600281111561005857fe5b0217905550506110de8061006d6000396000f3006080604052600436106100af576000357c0100000000000000000000000000000000000000000000000000000000900463ffffffff16806301333f06146100b457806302ccdf921461010b578063056e5e811461017057806313b9b598146101d557806356e9e79a1461022c5780636c0cbe24146102af5780637571af22146103235780637fe01ab91461037a5780639d1b464a146103d1578063c19d93fb146103fc578063d771563314610435575b600080fd5b3480156100c057600080fd5b506100c9610482565b604051808273ffffffffffffffffffffffffffffffffffffffff1673ffffffffffffffffffffffffffffffffffffffff16815260200191505060405180910390f35b34801561011757600080fd5b5061015660048036038101908080359060200190929190803573ffffffffffffffffffffffffffffffffffffffff1690602001909291905050506104a8565b604051808215151515815260200191505060405180910390f35b34801561017c57600080fd5b506101bb60048036038101908080359060200190929190803573ffffffffffffffffffffffffffffffffffffffff16906020019092919050505061059a565b604051808215151515815260200191505060405180910390f35b3480156101e157600080fd5b50610216600480360381019080803573ffffffffffffffffffffffffffffffffffffffff169060200190929190505050610721565b6040518082815260200191505060405180910390f35b34801561023857600080fd5b5061026d600480360381019080803573ffffffffffffffffffffffffffffffffffffffff1690602001909291905050506108d7565b604051808273ffffffffffffffffffffffffffffffffffffffff1673ffffffffffffffffffffffffffffffffffffffff16815260200191505060405180910390f35b3480156102bb57600080fd5b50610309600480360381019080803515159060200190929190803560ff169060200190929190803573ffffffffffffffffffffffffffffffffffffffff16906020019092919050505061090a565b604051808215151515815260200191505060405180910390f35b34801561032f57600080fd5b50610364600480360381019080803573ffffffffffffffffffffffffffffffffffffffff169060200190929190505050610c24565b6040518082815260200191505060405180910390f35b34801561038657600080fd5b506103bb600480360381019080803573ffffffffffffffffffffffffffffffffffffffff169060200190929190505050610c6d565b6040518082815260200191505060405180910390f35b3480156103dd57600080fd5b506103e6610c85565b6040518082815260200191505060405180910390f35b34801561040857600080fd5b50610411610c8b565b6040518082600281111561042157fe5b60ff16815260200191505060405180910390f35b34801561044157600080fd5b50610480600480360381019080803573ffffffffffffffffffffffffffffffffffffffff16906020019092919080359060200190929190505050610c9e565b005b600460009054906101000a900473ffffffffffffffffffffffffffffffffffffffff1681565b60008083836104b5610cef565b808381526020018273ffffffffffffffffffffffffffffffffffffffff1673ffffffffffffffffffffffffffffffffffffffff16815260200192505050604051809103906000f08015801561050e573d6000803e3d6000fd5b50905080600260008573ffffffffffffffffffffffffffffffffffffffff1673ffffffffffffffffffffffffffffffffffffffff16815260200190815260200160002060006101000a81548173ffffffffffffffffffffffffffffffffffffffff021916908373ffffffffffffffffffffffffffffffffffffffff160217905550600191505092915050565b60008083836105a7610cef565b808381526020018273ffffffffffffffffffffffffffffffffffffffff1673ffffffffffffffffffffffffffffffffffffffff16815260200192505050604051809103906000f080158015610600573d6000803e3d6000fd5b50905080600260008573ffffffffffffffffffffffffffffffffffffffff1673ffffffffffffffffffffffffffffffffffffffff16815260200190815260200160002060006101000a81548173ffffffffffffffffffffffffffffffffffffffff021916908373ffffffffffffffffffffffffffffffffffffffff16021790555083600360008573ffffffffffffffffffffffffffffffffffffffff1673ffffffffffffffffffffffffffffffffffffffff168152602001908152602001600020600082825401925050819055508360008190555082600460006101000a81548173ffffffffffffffffffffffffffffffffffffffff021916908373ffffffffffffffffffffffffffffffffffffffff160217905550600191505092915050565b600080600260008473ffffffffffffffffffffffffffffffffffffffff1673ffffffffffffffffffffffffffffffffffffffff16815260200190815260200160002060009054906101000a900473ffffffffffffffffffffffffffffffffffffffff1690508073ffffffffffffffffffffffffffffffffffffffff1663267c4ae46040518163ffffffff167c0100000000000000000000000000000000000000000000000000000000028152600401602060405180830381600087803b1580156107ea57600080fd5b505af11580156107fe573d6000803e3d6000fd5b505050506040513d602081101561081457600080fd5b8101908080519060200190929190505050151561083057600080fd5b8073ffffffffffffffffffffffffffffffffffffffff1663aa8c217c6040518163ffffffff167c0100000000000000000000000000000000000000000000000000000000028152600401602060405180830381600087803b15801561089457600080fd5b505af11580156108a8573d6000803e3d6000fd5b505050506040513d60208110156108be57600080fd5b8101908080519060200190929190505050915050919050565b60026020528060005260406000206000915054906101000a900473ffffffffffffffffffffffffffffffffffffffff1681565b600080600260008473ffffffffffffffffffffffffffffffffffffffff1673ffffffffffffffffffffffffffffffffffffffff16815260200190815260200160002060009054906101000a900473ffffffffffffffffffffffffffffffffffffffff169050600115158173ffffffffffffffffffffffffffffffffffffffff1663267c4ae46040518163ffffffff167c0100000000000000000000000000000000000000000000000000000000028152600401602060405180830381600087803b1580156109d757600080fd5b505af11580156109eb573d6000803e3d6000fd5b505050506040513d6020811015610a0157600080fd5b81019080805190602001909291905050501515141515610a2057600080fd5b8273ffffffffffffffffffffffffffffffffffffffff168173ffffffffffffffffffffffffffffffffffffffff16638da5cb5b6040518163ffffffff167c0100000000000000000000000000000000000000000000000000000000028152600401602060405180830381600087803b158015610a9b57600080fd5b505af1158015610aaf573d6000803e3d6000fd5b505050506040513d6020811015610ac557600080fd5b810190808051906020019092919050505073ffffffffffffffffffffffffffffffffffffffff16141515610af857600080fd5b8073ffffffffffffffffffffffffffffffffffffffff166356de96db856040518263ffffffff167c010000000000000000000000000000000000000000000000000000000002815260040180826004811115610b5057fe5b60ff168152602001915050600060405180830381600087803b158015610b7557600080fd5b505af1158015610b89573d6000803e3d6000fd5b505050508073ffffffffffffffffffffffffffffffffffffffff1663592056a8866040518263ffffffff167c01000000000000000000000000000000000000000000000000000000000281526004018082151515158152602001915050600060405180830381600087803b158015610c0057600080fd5b505af1158015610c14573d6000803e3d6000fd5b5050505060019150509392505050565b6000600360008373ffffffffffffffffffffffffffffffffffffffff1673ffffffffffffffffffffffffffffffffffffffff168152602001908152602001600020549050919050565b60036020528060005260406000206000915090505481565b60005481565b600160009054906101000a900460ff1681565b80600360008473ffffffffffffffffffffffffffffffffffffffff1673ffffffffffffffffffffffffffffffffffffffff168152602001908152602001600020600082825403925050819055505050565b6040516103b380610d00833901905600608060405234801561001057600080fd5b506040516040806103b383398101806040528101908080519060200190929190805190602001909291905050508160008190555080600160026101000a81548173ffffffffffffffffffffffffffffffffffffffff021916908373ffffffffffffffffffffffffffffffffffffffff16021790555060018060006101000a81548160ff021916908360048111156100a357fe5b021790555060018060016101000a81548160ff02191690831515021790555050506102e0806100d36000396000f300608060405260043610610083576000357c0100000000000000000000000000000000000000000000000000000000900463ffffffff1680631865c57d14610088578063267c4ae4146100c157806356de96db146100f0578063592056a8146101205780638da5cb5b1461014f578063aa8c217c146101a6578063c19d93fb146101d1575b600080fd5b34801561009457600080fd5b5061009d61020a565b604051808260048111156100ad57fe5b60ff16815260200191505060405180910390f35b3480156100cd57600080fd5b506100d6610221565b604051808215151515815260200191505060405180910390f35b3480156100fc57600080fd5b5061011e600480360381019080803560ff169060200190929190505050610233565b005b34801561012c57600080fd5b5061014d600480360381019080803515159060200190929190505050610259565b005b34801561015b57600080fd5b50610164610275565b604051808273ffffffffffffffffffffffffffffffffffffffff1673ffffffffffffffffffffffffffffffffffffffff16815260200191505060405180910390f35b3480156101b257600080fd5b506101bb61029b565b6040518082815260200191505060405180910390f35b3480156101dd57600080fd5b506101e66102a1565b604051808260048111156101f657fe5b60ff16815260200191505060405180910390f35b6000600160009054906101000a900460ff16905090565b6001809054906101000a900460ff1681565b80600160006101000a81548160ff0219169083600481111561025157fe5b021790555050565b806001806101000a81548160ff02191690831515021790555050565b600160029054906101000a900473ffffffffffffffffffffffffffffffffffffffff1681565b60005481565b600160009054906101000a900460ff16815600a165627a7a723058203496d5af80f78767161fd9fc317645e0f9a52e4ee333343c2376c41df275a0c00029a165627a7a72305820feaa226ef9595efa32e07ec4ddc10a5bfa7a7f958e978ca4f0eb239a62413f980029a165627a7a723058204b0e3e3752df4c8a5c773f6ea47583c32984c42408c1c3d459ebef29758a6f4e0029",
  "source": "pragma solidity ^0.4.18;\n\nimport './Util.sol';\nimport './ProtectReEntry.sol';\nimport './BidContainer.sol';\nimport './Library.sol';\n\n\n/**\n * Author Hitesh Joshi\n * Reserve a Name\n * Bid on names\n * New Bid has to greater than the last Bid\n * Send money through DNS names\n * Accept Bids and transfer ownership\n * Initial reservation fee goes to DNS Creator \n * Initial fee has to be atleast 100 finney and capped at 10 Ether\n * \n */ \n\ncontract DNSRegistry is Util, ProtectReEntry {\n     \n     // using Library for Library.DNSName;\n     mapping (bytes32 => Library.DNSName) dnsNameMap;\n    \n     // every Name has a Bid map  containig all bids for the map\n     mapping (bytes32 => BidContainer) bidContainerMap;\n    \n     uint constant MINIMUM_NAME_LENGTH = 2;\n     uint constant MAX_NAME_LENGTH = 25;\n    \n     //Initial fee tx goes to contract creator\n     address registryOwner;\n    \n     // events\n     event DnsCreatedEvent(address _owner);\n     event ReserveNameEvent(string _name , uint _reserveNameFee,\n        address _reservedBy, bool _success);\n     event EtherSentToNameEvent(string _name, uint _amount);\n     event ReleasedOwnershipEvent(string _name);\n     event HighestBidIncreasedEvent(address bidder, uint price);\n\t event BidWithdrawnEvent(string _name,address _bidder, uint _withdrawnAmount);\n\t event BidAcceptedEvent(string _name,address _oldOwner, \n        address newOwner,uint latestPrice);  \n     \n    \n     // constructor\n    function DNSRegistry() public {\n        registryOwner = msg.sender;\n        DnsCreatedEvent(msg.sender);\n    }\n    \n    /**\n      * Public Member to check Name Availability\n      * \n      */\n    function checkNameExists(string _name) public view\n        returns(bool _exists)\n        {\n         bytes32 name = toBytes32(_name);\n         return hasOwner(name);\n     }\n     \n    function hasOwner(bytes32 _name) internal view returns (bool _nameExists) {\n        return dnsNameMap[_name].exists;\n     }\n\n      \n    /**\n     * Reserving a Name for the first Time\n     * Can reserve a name that is not reserved yet\n     * Atleast 100 finney reservation fee, capped at 10 Ether\n     * Name should be minLength = 2 and maxLength = 25\n     * Case sensitive\n     * Only () _ - ! .  are allowed in the name\n     */ \n    function reserveName(string _name) \n           public payable returns(bool success)  \n         {\n         externalEnter();     \n        //  require(validateName(_name) == true);   \n         bytes32 name = toBytes32(_name); \n         // check again even if you checked using checkNameAvailability\n         // do not use throw(deprecated) or assert be good devs\n         require(!hasOwner(name)); \n         uint reserveNameFee = msg.value;\n         // TODO commented the check for init fee as  test case is failing \n         require(validateDNSNameProposal(reserveNameFee));\n        \n         // if pre cond are good, send some love to the developer\n         bool sentOk = registryOwner.send(reserveNameFee);\n         // love shown to the developer\n         bool created = false;\n         if (sentOk) {\n            created = createNewDNSEntry(name,reserveNameFee);\n            // create the BidContainer\n            BidContainer bidContainer = new BidContainer(reserveNameFee);\n            // add the first bid\n            bidContainerMap[name] = bidContainer;\n            ReserveNameEvent(_name, reserveNameFee, msg.sender, created);\n         }\n         externalLeave();\n         return created;\n     }\n      \n      // function to check name, initial fee has to be atleast 0.1 Ether \n    function validateDNSNameProposal(\n         uint _reserveNameFee\n       ) pure internal returns (bool) \n        {\n        // conscientious developer - setting upper limit to 10 ether\n        if (_reserveNameFee < 1 finney ||\n            _reserveNameFee > 10 ether) {\n            return false;\n        }        \n        return true;\n     }\n    \n     // create the actual DNS entry - private curb inheritance\n    function createNewDNSEntry(bytes32 _name, uint _reserveNameFee) private\n      returns (bool _created)\n     {\n       dnsNameMap[_name].name = _name;\n       dnsNameMap[_name].owner = msg.sender;\n       dnsNameMap[_name].price = _reserveNameFee; \n       dnsNameMap[_name].exists = true;\n       return true;\n     }\n     /**\n      * Send Dough to a Name using the registry\n      */\n    function sendEtherToName(string _name) public payable returns (bool) {\n        externalEnter();\n        uint amount = msg.value;\n         require(msg.sender.balance > amount);\n         bytes32 name = toBytes32(_name); \n         require(hasOwner(name));\n         Library.DNSName storage dnsName = dnsNameMap[name];\n         require(msg.sender != dnsName.owner);\n         dnsName.owner.transfer(amount);\n         EtherSentToNameEvent(_name,amount);\n         externalLeave();\n         return true;\n     }\n     /**\n      * Function to Bid on a name\n      * Can bid only on acquired names\n      * Owner cannot bid on his own name - no artificial inflation of price\n      * Bids should be higher than the highest bid received so far\n      */ \n    function bid(string _name) public payable {\n        externalEnter();\n        bytes32  name = toBytes32(_name); \n        // name should be owned by someone before you bid\n        require(hasOwner(name));\n        // can't bid on your own name \n        require(msg.sender != dnsNameMap[name].owner);\n        \n        // current bid has to be higher than last\n        require(msg.value > getHighestBidSoFar(_name));\n        \n        BidContainer bidContainer = bidContainerMap[name];\n        uint bidPrice = msg.value;\n        bidContainer.addBid(bidPrice,msg.sender);\n        HighestBidIncreasedEvent(msg.sender,msg.value);\n        externalLeave();\n     }\n   \n     /**\n      * View function to get the Highest bid for a name\n      */\n    function getHighestBidSoFar(string _name) public view \n      returns(uint bidPrice)\n       {\n         bytes32  name = toBytes32(_name);\n       // find the BidContainer for this name\n       BidContainer bidContainer = bidContainerMap[name];\n       return bidContainer.currentPrice();\n     }\n     \n    function getHighestBidder(string _name) public view\n        returns(address bidder)\n        {\n       bytes32  name = toBytes32(_name);\n       // find the BidContainer for this name\n       BidContainer bidContainer = bidContainerMap[name];\n       return bidContainer.topBidder();\n     }\n     \n    function getBidValue(string _name,address _address) public constant\n        returns(uint bidval)\n       {\n       bytes32  name = toBytes32(_name);\n       // find the BidContainer for this name\n       BidContainer bidContainer = bidContainerMap[name];\n       return bidContainer.getBidAmount(_address);\n     }\n     \n     /**\n      * Withdraws a bid on a name \n      * Only allows withdrawls if you current bid is not top bid\n      * Allows to withdraw all previous overbidden bids\n      */ \n     \n    function withdrawOverBiddenBid(string _name) public returns(bool done) {\n        externalEnter();\n        bytes32  name = toBytes32(_name);\n        BidContainer bidContainer = bidContainerMap[name];\n        //require(bidContainer.state() == Library.BidContainerState.ACTIVE);\n        \n        // if he is not a top Bidder let him withdraw\n        require(msg.sender != bidContainer.topBidder());\n        \n        // get all amount for sender\n        uint amount = bidContainer.getPendingAmount(msg.sender);\n        \n        // set Bid exists to false\n        require(bidContainer.setBidState(false,\n          Library.BidStates.WITHDRAWN, msg.sender) == true);\n        \n        // send amount back\n        if (!msg.sender.send(amount)) {\n                // if amount sending failed, create a new bid \n                // as we have canceled the old one\n                bidContainer.addDefunctBid(amount, msg.sender);\n                return false;\n            }\n            BidWithdrawnEvent(_name, msg.sender, amount);\n            externalLeave();\n            return true;\n      }\n\t  \n\t   /**\n\t   * Owner accepts a bid \n\t   * Ether equal to winning bid is transferred to owner account\n\t   * ownership changes hands\n\t   * Winners bid balance is adjusted \n\t   */ \n\tfunction acceptBidAndTransferOwnerShip(string _name) public\n         returns(bool transferred)\n         {\n         externalEnter();\n         bytes32  name = toBytes32(_name);\n         // check owner exists\n         require(hasOwner(name));\n         // only owner can accept bids\n         require(msg.sender == dnsNameMap[name].owner);\n         \n         // get the highest bid\n         uint winningBid = getHighestBidSoFar(_name);\n         // get the highest Bidder\n         bool isPayed = false;\n         // transfer Dough\n         // if success, transfer ownserhip\n           if (msg.sender.send(winningBid)) {\n              \n           address winningBidder = getHighestBidder(_name);\n           dnsNameMap[name].price = winningBid;\n           dnsNameMap[name].owner = winningBidder;\n           BidContainer bidContainer = bidContainerMap[name];\n           bidContainer.adjustBalanceOnWinning(winningBidder,winningBid); \n           // remove the winnig bid out of existence\n           require(bidContainer.setBidState(false,\n           Library.BidStates.ACCEPTED, winningBidder) == true);\n           isPayed = true;\n           \n           }\n          BidAcceptedEvent(_name,msg.sender,winningBidder,winningBid); \n          externalLeave();\n          return isPayed;\n        }\n     \n     \n     /**\n      * voluntarily release Ownership\n      * Not Sure why would anyone release ownership without a bid\n      * Unless as an extension later, they have to pay\n      * for maintaining their name in DNS\n      * constraint - Only owner can release a Name\n      */\n    function releaseOwnership(string _name) public \n        returns (bool _released) \n        {\n        externalEnter();    \n         bytes32  name = toBytes32(_name); \n         require(hasOwner(name));\n         // only owner can release ownership\n         require(msg.sender == dnsNameMap[name].owner);\n         dnsNameMap[name].price = 0; \n         dnsNameMap[name].exists = false;\n         ReleasedOwnershipEvent(_name);\n         externalLeave();\n         return true;\n     }\n\n      function checkNamePrice(string _name) public view returns(uint){\n                  bytes32  name = toBytes32(_name); \n         require(hasOwner(name));\n         uint highestBid = getHighestBidSoFar(_name);\n         uint lastTradedPrice = dnsNameMap[name].price;\n         if(highestBid>lastTradedPrice) return highestBid;\n         else return lastTradedPrice;\n         \n     }\n\n     function getCurrentOwnerOfName(string _name) public view returns(address) {\n        bytes32  name = toBytes32(_name); \n         require(hasOwner(name));\n         return dnsNameMap[name].owner;    \n     }\n\n     /**\n      * Get total bid money held by contract\n      * Helps to test if the bids are repatraited correctly\n      */\n     function getTotalEtherHeldInContract() public view returns (uint) {\n         return this.balance;\n     }\n    \n    function validateName(string _name) pure internal \n       returns (bool allowed) \n       {\n        bytes memory nameBytes = bytes(_name);\n       \n        uint lengthBytes = nameBytes.length;\n        if (lengthBytes < MINIMUM_NAME_LENGTH ||\n            lengthBytes > MAX_NAME_LENGTH) {\n            return false;\n        }\n        bool foundNonPunctuation = false;\n        for (uint i = 0; i < lengthBytes; i++) {\n            byte b = nameBytes[i];\n            if (\n                // 0 - 9\n                // A - Z\n                // a - z \n                (b >= 48 && b <= 57) || (b >= 65 && b <= 90) || (b >= 97 && b <= 122)\n            ) {\n                foundNonPunctuation = true;\n                continue;\n            }\n            if (\n                // space\n                // !\n                // (\n                // )\n                // -\n                // .\n                // _\n                b == 32 || b == 33 || b == 40 || b == 41 || b == 45 || b == 46 || b == 95    \n            ) {\n                continue;\n            }\n            return false;\n        }\n        return foundNonPunctuation;\n    }\n}",
  "sourcePath": "/Users/hitesh/myworkspace/dump/dns-dapp/contracts/DNSRegistry.sol",
  "compiler": {
    "name": "solc",
    "version": "0.4.25+commit.59dbf8f1.Emscripten.clang"
  },
  "schemaVersion": "2.0.2",
  "updatedAt": "2019-01-12T10:45:33.593Z"
}