{
  "contractName": "EthereumDIDRegistry",
  "abi": [
    {
      "constant": true,
      "inputs": [
        {
          "name": "",
          "type": "address"
        }
      ],
      "name": "owners",
      "outputs": [
        {
          "name": "",
          "type": "address"
        }
      ],
      "payable": false,
      "stateMutability": "view",
      "type": "function",
      "signature": "0x022914a7"
    },
    {
      "constant": true,
      "inputs": [
        {
          "name": "",
          "type": "address"
        },
        {
          "name": "",
          "type": "bytes32"
        },
        {
          "name": "",
          "type": "address"
        }
      ],
      "name": "delegates",
      "outputs": [
        {
          "name": "",
          "type": "uint256"
        }
      ],
      "payable": false,
      "stateMutability": "view",
      "type": "function",
      "signature": "0x0d44625b"
    },
    {
      "constant": true,
      "inputs": [
        {
          "name": "",
          "type": "address"
        }
      ],
      "name": "nonce",
      "outputs": [
        {
          "name": "",
          "type": "uint256"
        }
      ],
      "payable": false,
      "stateMutability": "view",
      "type": "function",
      "signature": "0x70ae92d2"
    },
    {
      "constant": true,
      "inputs": [
        {
          "name": "",
          "type": "address"
        }
      ],
      "name": "changed",
      "outputs": [
        {
          "name": "",
          "type": "uint256"
        }
      ],
      "payable": false,
      "stateMutability": "view",
      "type": "function",
      "signature": "0xf96d0f9f"
    },
    {
      "anonymous": false,
      "inputs": [
        {
          "indexed": true,
          "name": "identity",
          "type": "address"
        },
        {
          "indexed": false,
          "name": "owner",
          "type": "address"
        },
        {
          "indexed": false,
          "name": "previousChange",
          "type": "uint256"
        }
      ],
      "name": "DIDOwnerChanged",
      "type": "event",
      "signature": "0x38a5a6e68f30ed1ab45860a4afb34bcb2fc00f22ca462d249b8a8d40cda6f7a3"
    },
    {
      "anonymous": false,
      "inputs": [
        {
          "indexed": true,
          "name": "identity",
          "type": "address"
        },
        {
          "indexed": false,
          "name": "delegateType",
          "type": "bytes32"
        },
        {
          "indexed": false,
          "name": "delegate",
          "type": "address"
        },
        {
          "indexed": false,
          "name": "validTo",
          "type": "uint256"
        },
        {
          "indexed": false,
          "name": "previousChange",
          "type": "uint256"
        }
      ],
      "name": "DIDDelegateChanged",
      "type": "event",
      "signature": "0x5a5084339536bcab65f20799fcc58724588145ca054bd2be626174b27ba156f7"
    },
    {
      "anonymous": false,
      "inputs": [
        {
          "indexed": true,
          "name": "identity",
          "type": "address"
        },
        {
          "indexed": false,
          "name": "name",
          "type": "bytes32"
        },
        {
          "indexed": false,
          "name": "value",
          "type": "bytes"
        },
        {
          "indexed": false,
          "name": "validTo",
          "type": "uint256"
        },
        {
          "indexed": false,
          "name": "previousChange",
          "type": "uint256"
        }
      ],
      "name": "DIDAttributeChanged",
      "type": "event",
      "signature": "0x18ab6b2ae3d64306c00ce663125f2bd680e441a098de1635bd7ad8b0d44965e4"
    },
    {
      "constant": true,
      "inputs": [
        {
          "name": "identity",
          "type": "address"
        }
      ],
      "name": "identityOwner",
      "outputs": [
        {
          "name": "",
          "type": "address"
        }
      ],
      "payable": false,
      "stateMutability": "view",
      "type": "function",
      "signature": "0x8733d4e8"
    },
    {
      "constant": true,
      "inputs": [
        {
          "name": "identity",
          "type": "address"
        },
        {
          "name": "delegateType",
          "type": "bytes32"
        },
        {
          "name": "delegate",
          "type": "address"
        }
      ],
      "name": "validDelegate",
      "outputs": [
        {
          "name": "",
          "type": "bool"
        }
      ],
      "payable": false,
      "stateMutability": "view",
      "type": "function",
      "signature": "0x622b2a3c"
    },
    {
      "constant": false,
      "inputs": [
        {
          "name": "identity",
          "type": "address"
        },
        {
          "name": "newOwner",
          "type": "address"
        }
      ],
      "name": "changeOwner",
      "outputs": [],
      "payable": false,
      "stateMutability": "nonpayable",
      "type": "function",
      "signature": "0xf00d4b5d"
    },
    {
      "constant": false,
      "inputs": [
        {
          "name": "identity",
          "type": "address"
        },
        {
          "name": "sigV",
          "type": "uint8"
        },
        {
          "name": "sigR",
          "type": "bytes32"
        },
        {
          "name": "sigS",
          "type": "bytes32"
        },
        {
          "name": "newOwner",
          "type": "address"
        }
      ],
      "name": "changeOwnerSigned",
      "outputs": [],
      "payable": false,
      "stateMutability": "nonpayable",
      "type": "function",
      "signature": "0x240cf1fa"
    },
    {
      "constant": false,
      "inputs": [
        {
          "name": "identity",
          "type": "address"
        },
        {
          "name": "delegateType",
          "type": "bytes32"
        },
        {
          "name": "delegate",
          "type": "address"
        },
        {
          "name": "validity",
          "type": "uint256"
        }
      ],
      "name": "addDelegate",
      "outputs": [],
      "payable": false,
      "stateMutability": "nonpayable",
      "type": "function",
      "signature": "0xa7068d66"
    },
    {
      "constant": false,
      "inputs": [
        {
          "name": "identity",
          "type": "address"
        },
        {
          "name": "sigV",
          "type": "uint8"
        },
        {
          "name": "sigR",
          "type": "bytes32"
        },
        {
          "name": "sigS",
          "type": "bytes32"
        },
        {
          "name": "delegateType",
          "type": "bytes32"
        },
        {
          "name": "delegate",
          "type": "address"
        },
        {
          "name": "validity",
          "type": "uint256"
        }
      ],
      "name": "addDelegateSigned",
      "outputs": [],
      "payable": false,
      "stateMutability": "nonpayable",
      "type": "function",
      "signature": "0x9c2c1b2b"
    },
    {
      "constant": false,
      "inputs": [
        {
          "name": "identity",
          "type": "address"
        },
        {
          "name": "delegateType",
          "type": "bytes32"
        },
        {
          "name": "delegate",
          "type": "address"
        }
      ],
      "name": "revokeDelegate",
      "outputs": [],
      "payable": false,
      "stateMutability": "nonpayable",
      "type": "function",
      "signature": "0x80b29f7c"
    },
    {
      "constant": false,
      "inputs": [
        {
          "name": "identity",
          "type": "address"
        },
        {
          "name": "sigV",
          "type": "uint8"
        },
        {
          "name": "sigR",
          "type": "bytes32"
        },
        {
          "name": "sigS",
          "type": "bytes32"
        },
        {
          "name": "delegateType",
          "type": "bytes32"
        },
        {
          "name": "delegate",
          "type": "address"
        }
      ],
      "name": "revokeDelegateSigned",
      "outputs": [],
      "payable": false,
      "stateMutability": "nonpayable",
      "type": "function",
      "signature": "0x93072684"
    },
    {
      "constant": false,
      "inputs": [
        {
          "name": "identity",
          "type": "address"
        },
        {
          "name": "name",
          "type": "bytes32"
        },
        {
          "name": "value",
          "type": "bytes"
        },
        {
          "name": "validity",
          "type": "uint256"
        }
      ],
      "name": "setAttribute",
      "outputs": [],
      "payable": false,
      "stateMutability": "nonpayable",
      "type": "function",
      "signature": "0x7ad4b0a4"
    },
    {
      "constant": false,
      "inputs": [
        {
          "name": "identity",
          "type": "address"
        },
        {
          "name": "sigV",
          "type": "uint8"
        },
        {
          "name": "sigR",
          "type": "bytes32"
        },
        {
          "name": "sigS",
          "type": "bytes32"
        },
        {
          "name": "name",
          "type": "bytes32"
        },
        {
          "name": "value",
          "type": "bytes"
        },
        {
          "name": "validity",
          "type": "uint256"
        }
      ],
      "name": "setAttributeSigned",
      "outputs": [],
      "payable": false,
      "stateMutability": "nonpayable",
      "type": "function",
      "signature": "0x123b5e98"
    },
    {
      "constant": false,
      "inputs": [
        {
          "name": "identity",
          "type": "address"
        },
        {
          "name": "name",
          "type": "bytes32"
        },
        {
          "name": "value",
          "type": "bytes"
        }
      ],
      "name": "revokeAttribute",
      "outputs": [],
      "payable": false,
      "stateMutability": "nonpayable",
      "type": "function",
      "signature": "0x00c023da"
    },
    {
      "constant": false,
      "inputs": [
        {
          "name": "identity",
          "type": "address"
        },
        {
          "name": "sigV",
          "type": "uint8"
        },
        {
          "name": "sigR",
          "type": "bytes32"
        },
        {
          "name": "sigS",
          "type": "bytes32"
        },
        {
          "name": "name",
          "type": "bytes32"
        },
        {
          "name": "value",
          "type": "bytes"
        }
      ],
      "name": "revokeAttributeSigned",
      "outputs": [],
      "payable": false,
      "stateMutability": "nonpayable",
      "type": "function",
      "signature": "0xe476af5c"
    },
    {
      "constant": true,
      "inputs": [
        {
          "name": "identity",
          "type": "address"
        }
      ],
      "name": "getNonce",
      "outputs": [
        {
          "name": "nonceValue",
          "type": "uint256"
        }
      ],
      "payable": false,
      "stateMutability": "view",
      "type": "function",
      "signature": "0x2d0335ab"
    }
  ],
  "bytecode": "0x608060405234801561001057600080fd5b5061279b806100206000396000f3fe6080604052600436106100f0576000357c0100000000000000000000000000000000000000000000000000000000900463ffffffff168062c023da146100f5578063022914a7146101e75780630d44625b14610278578063123b5e9814610307578063240cf1fa146104245780632d0335ab146104b6578063622b2a3c1461051b57806370ae92d2146105ae5780637ad4b0a41461061357806380b29f7c1461070f5780638733d4e81461078a578063930726841461081b5780639c2c1b2b146108b7578063a7068d661461095d578063e476af5c146109e2578063f00d4b5d14610af5578063f96d0f9f14610b66575b600080fd5b34801561010157600080fd5b506101e56004803603606081101561011857600080fd5b81019080803573ffffffffffffffffffffffffffffffffffffffff169060200190929190803590602001909291908035906020019064010000000081111561015f57600080fd5b82018360208201111561017157600080fd5b8035906020019184600183028401116401000000008311171561019357600080fd5b91908080601f016020809104026020016040519081016040528093929190818152602001838380828437600081840152601f19601f820116905080830192505050505050509192919290505050610bcb565b005b3480156101f357600080fd5b506102366004803603602081101561020a57600080fd5b81019080803573ffffffffffffffffffffffffffffffffffffffff169060200190929190505050610bdc565b604051808273ffffffffffffffffffffffffffffffffffffffff1673ffffffffffffffffffffffffffffffffffffffff16815260200191505060405180910390f35b34801561028457600080fd5b506102f16004803603606081101561029b57600080fd5b81019080803573ffffffffffffffffffffffffffffffffffffffff16906020019092919080359060200190929190803573ffffffffffffffffffffffffffffffffffffffff169060200190929190505050610c0f565b6040518082815260200191505060405180910390f35b34801561031357600080fd5b50610422600480360360e081101561032a57600080fd5b81019080803573ffffffffffffffffffffffffffffffffffffffff169060200190929190803560ff1690602001909291908035906020019092919080359060200190929190803590602001909291908035906020019064010000000081111561039257600080fd5b8201836020820111156103a457600080fd5b803590602001918460018302840111640100000000831117156103c657600080fd5b91908080601f016020809104026020016040519081016040528093929190818152602001838380828437600081840152601f19601f82011690508083019250505050505050919291929080359060200190929190505050610c41565b005b34801561043057600080fd5b506104b4600480360360a081101561044757600080fd5b81019080803573ffffffffffffffffffffffffffffffffffffffff169060200190929190803560ff1690602001909291908035906020019092919080359060200190929190803573ffffffffffffffffffffffffffffffffffffffff169060200190929190505050610ec7565b005b3480156104c257600080fd5b50610505600480360360208110156104d957600080fd5b81019080803573ffffffffffffffffffffffffffffffffffffffff169060200190929190505050611127565b6040518082815260200191505060405180910390f35b34801561052757600080fd5b506105946004803603606081101561053e57600080fd5b81019080803573ffffffffffffffffffffffffffffffffffffffff16906020019092919080359060200190929190803573ffffffffffffffffffffffffffffffffffffffff169060200190929190505050611170565b604051808215151515815260200191505060405180910390f35b3480156105ba57600080fd5b506105fd600480360360208110156105d157600080fd5b81019080803573ffffffffffffffffffffffffffffffffffffffff169060200190929190505050611236565b6040518082815260200191505060405180910390f35b34801561061f57600080fd5b5061070d6004803603608081101561063657600080fd5b81019080803573ffffffffffffffffffffffffffffffffffffffff169060200190929190803590602001909291908035906020019064010000000081111561067d57600080fd5b82018360208201111561068f57600080fd5b803590602001918460018302840111640100000000831117156106b157600080fd5b91908080601f016020809104026020016040519081016040528093929190818152602001838380828437600081840152601f19601f8201169050808301925050505050505091929192908035906020019092919050505061124e565b005b34801561071b57600080fd5b506107886004803603606081101561073257600080fd5b81019080803573ffffffffffffffffffffffffffffffffffffffff16906020019092919080359060200190929190803573ffffffffffffffffffffffffffffffffffffffff169060200190929190505050611261565b005b34801561079657600080fd5b506107d9600480360360208110156107ad57600080fd5b81019080803573ffffffffffffffffffffffffffffffffffffffff169060200190929190505050611272565b604051808273ffffffffffffffffffffffffffffffffffffffff1673ffffffffffffffffffffffffffffffffffffffff16815260200191505060405180910390f35b34801561082757600080fd5b506108b5600480360360c081101561083e57600080fd5b81019080803573ffffffffffffffffffffffffffffffffffffffff169060200190929190803560ff169060200190929190803590602001909291908035906020019092919080359060200190929190803573ffffffffffffffffffffffffffffffffffffffff16906020019092919050505061131f565b005b3480156108c357600080fd5b5061095b600480360360e08110156108da57600080fd5b81019080803573ffffffffffffffffffffffffffffffffffffffff169060200190929190803560ff169060200190929190803590602001909291908035906020019092919080359060200190929190803573ffffffffffffffffffffffffffffffffffffffff16906020019092919080359060200190929190505050611589565b005b34801561096957600080fd5b506109e06004803603608081101561098057600080fd5b81019080803573ffffffffffffffffffffffffffffffffffffffff16906020019092919080359060200190929190803573ffffffffffffffffffffffffffffffffffffffff169060200190929190803590602001909291905050506117fd565b005b3480156109ee57600080fd5b50610af3600480360360c0811015610a0557600080fd5b81019080803573ffffffffffffffffffffffffffffffffffffffff169060200190929190803560ff16906020019092919080359060200190929190803590602001909291908035906020019092919080359060200190640100000000811115610a6d57600080fd5b820183602082011115610a7f57600080fd5b80359060200191846001830284011164010000000083111715610aa157600080fd5b91908080601f016020809104026020016040519081016040528093929190818152602001838380828437600081840152601f19601f820116905080830192505050505050509192919290505050611810565b005b348015610b0157600080fd5b50610b6460048036036040811015610b1857600080fd5b81019080803573ffffffffffffffffffffffffffffffffffffffff169060200190929190803573ffffffffffffffffffffffffffffffffffffffff169060200190929190505050611a8c565b005b348015610b7257600080fd5b50610bb560048036036020811015610b8957600080fd5b81019080803573ffffffffffffffffffffffffffffffffffffffff169060200190929190505050611a9b565b6040518082815260200191505060405180910390f35b610bd783338484611ab3565b505050565b60006020528060005260406000206000915054906101000a900473ffffffffffffffffffffffffffffffffffffffff1681565b600160205282600052604060002060205281600052604060002060205280600052604060002060009250925050505481565b600060197f01000000000000000000000000000000000000000000000000000000000000000260007f0100000000000000000000000000000000000000000000000000000000000000023060036000610c998d611272565b73ffffffffffffffffffffffffffffffffffffffff1673ffffffffffffffffffffffffffffffffffffffff168152602001908152602001600020548b88888860405160200180897effffffffffffffffffffffffffffffffffffffffffffffffffffffffffffff19167effffffffffffffffffffffffffffffffffffffffffffffffffffffffffffff19168152600101887effffffffffffffffffffffffffffffffffffffffffffffffffffffffffffff19167effffffffffffffffffffffffffffffffffffffffffffffffffffffffffffff191681526001018773ffffffffffffffffffffffffffffffffffffffff1673ffffffffffffffffffffffffffffffffffffffff166c010000000000000000000000000281526014018681526020018573ffffffffffffffffffffffffffffffffffffffff1673ffffffffffffffffffffffffffffffffffffffff166c01000000000000000000000000028152601401807f7365744174747269627574650000000000000000000000000000000000000000815250600c0184815260200183805190602001908083835b602083101515610e5a5780518252602082019150602081019050602083039250610e35565b6001836020036101000a03801982511681845116808217855250505050505090500182815260200198505050505050505050604051602081830303815290604052805190602001209050610ebd88610eb58a8a8a8a87611cb7565b868686611e2a565b5050505050505050565b600060197f01000000000000000000000000000000000000000000000000000000000000000260007f0100000000000000000000000000000000000000000000000000000000000000023060036000610f1f8b611272565b73ffffffffffffffffffffffffffffffffffffffff1673ffffffffffffffffffffffffffffffffffffffff16815260200190815260200160002054898660405160200180877effffffffffffffffffffffffffffffffffffffffffffffffffffffffffffff19167effffffffffffffffffffffffffffffffffffffffffffffffffffffffffffff19168152600101867effffffffffffffffffffffffffffffffffffffffffffffffffffffffffffff19167effffffffffffffffffffffffffffffffffffffffffffffffffffffffffffff191681526001018573ffffffffffffffffffffffffffffffffffffffff1673ffffffffffffffffffffffffffffffffffffffff166c010000000000000000000000000281526014018481526020018373ffffffffffffffffffffffffffffffffffffffff1673ffffffffffffffffffffffffffffffffffffffff166c01000000000000000000000000028152601401807f6368616e67654f776e6572000000000000000000000000000000000000000000815250600b018273ffffffffffffffffffffffffffffffffffffffff1673ffffffffffffffffffffffffffffffffffffffff166c01000000000000000000000000028152601401965050505050505060405160208183030381529060405280519060200120905061111f866111198888888887611cb7565b84612030565b505050505050565b6000600360008373ffffffffffffffffffffffffffffffffffffffff1673ffffffffffffffffffffffffffffffffffffffff168152602001908152602001600020549050919050565b600080600160008673ffffffffffffffffffffffffffffffffffffffff1673ffffffffffffffffffffffffffffffffffffffff1681526020019081526020016000206000856040516020018082815260200191505060405160208183030381529060405280519060200120815260200190815260200160002060008473ffffffffffffffffffffffffffffffffffffffff1673ffffffffffffffffffffffffffffffffffffffff1681526020019081526020016000205490504281119150509392505050565b60036020528060005260406000206000915090505481565b61125b8433858585611e2a565b50505050565b61126d83338484612266565b505050565b6000806000808473ffffffffffffffffffffffffffffffffffffffff1673ffffffffffffffffffffffffffffffffffffffff16815260200190815260200160002060009054906101000a900473ffffffffffffffffffffffffffffffffffffffff169050600073ffffffffffffffffffffffffffffffffffffffff168173ffffffffffffffffffffffffffffffffffffffff16141515611315578091505061131a565b829150505b919050565b600060197f01000000000000000000000000000000000000000000000000000000000000000260007f01000000000000000000000000000000000000000000000000000000000000000230600360006113778c611272565b73ffffffffffffffffffffffffffffffffffffffff1673ffffffffffffffffffffffffffffffffffffffff168152602001908152602001600020548a878760405160200180887effffffffffffffffffffffffffffffffffffffffffffffffffffffffffffff19167effffffffffffffffffffffffffffffffffffffffffffffffffffffffffffff19168152600101877effffffffffffffffffffffffffffffffffffffffffffffffffffffffffffff19167effffffffffffffffffffffffffffffffffffffffffffffffffffffffffffff191681526001018673ffffffffffffffffffffffffffffffffffffffff1673ffffffffffffffffffffffffffffffffffffffff166c010000000000000000000000000281526014018581526020018473ffffffffffffffffffffffffffffffffffffffff1673ffffffffffffffffffffffffffffffffffffffff166c01000000000000000000000000028152601401807f7265766f6b6544656c6567617465000000000000000000000000000000000000815250600e018381526020018273ffffffffffffffffffffffffffffffffffffffff1673ffffffffffffffffffffffffffffffffffffffff166c01000000000000000000000000028152601401975050505050505050604051602081830303815290604052805190602001209050611580876115798989898987611cb7565b8585612266565b50505050505050565b600060197f01000000000000000000000000000000000000000000000000000000000000000260007f01000000000000000000000000000000000000000000000000000000000000000230600360006115e18d611272565b73ffffffffffffffffffffffffffffffffffffffff1673ffffffffffffffffffffffffffffffffffffffff168152602001908152602001600020548b88888860405160200180897effffffffffffffffffffffffffffffffffffffffffffffffffffffffffffff19167effffffffffffffffffffffffffffffffffffffffffffffffffffffffffffff19168152600101887effffffffffffffffffffffffffffffffffffffffffffffffffffffffffffff19167effffffffffffffffffffffffffffffffffffffffffffffffffffffffffffff191681526001018773ffffffffffffffffffffffffffffffffffffffff1673ffffffffffffffffffffffffffffffffffffffff166c010000000000000000000000000281526014018681526020018573ffffffffffffffffffffffffffffffffffffffff1673ffffffffffffffffffffffffffffffffffffffff166c01000000000000000000000000028152601401807f61646444656c6567617465000000000000000000000000000000000000000000815250600b018481526020018373ffffffffffffffffffffffffffffffffffffffff1673ffffffffffffffffffffffffffffffffffffffff166c01000000000000000000000000028152601401828152602001985050505050505050506040516020818303038152906040528051906020012090506117f3886117eb8a8a8a8a87611cb7565b8686866124e8565b5050505050505050565b61180a84338585856124e8565b50505050565b600060197f01000000000000000000000000000000000000000000000000000000000000000260007f01000000000000000000000000000000000000000000000000000000000000000230600360006118688c611272565b73ffffffffffffffffffffffffffffffffffffffff1673ffffffffffffffffffffffffffffffffffffffff168152602001908152602001600020548a878760405160200180887effffffffffffffffffffffffffffffffffffffffffffffffffffffffffffff19167effffffffffffffffffffffffffffffffffffffffffffffffffffffffffffff19168152600101877effffffffffffffffffffffffffffffffffffffffffffffffffffffffffffff19167effffffffffffffffffffffffffffffffffffffffffffffffffffffffffffff191681526001018673ffffffffffffffffffffffffffffffffffffffff1673ffffffffffffffffffffffffffffffffffffffff166c010000000000000000000000000281526014018581526020018473ffffffffffffffffffffffffffffffffffffffff1673ffffffffffffffffffffffffffffffffffffffff166c01000000000000000000000000028152601401807f7265766f6b654174747269627574650000000000000000000000000000000000815250600f0183815260200182805190602001908083835b602083101515611a285780518252602082019150602081019050602083039250611a03565b6001836020036101000a038019825116818451168082178552505050505050905001975050505050505050604051602081830303815290604052805190602001209050611a8387611a7c8989898987611cb7565b8585611ab3565b50505050505050565b611a97823383612030565b5050565b60026020528060005260406000206000915090505481565b8383611abe82611272565b73ffffffffffffffffffffffffffffffffffffffff168173ffffffffffffffffffffffffffffffffffffffff16141515611b60576040517f08c379a00000000000000000000000000000000000000000000000000000000081526004018080602001828103825260128152602001807f6163746f72206973206e6f74206f776e6572000000000000000000000000000081525060200191505060405180910390fd5b8573ffffffffffffffffffffffffffffffffffffffff167f18ab6b2ae3d64306c00ce663125f2bd680e441a098de1635bd7ad8b0d44965e485856000600260008c73ffffffffffffffffffffffffffffffffffffffff1673ffffffffffffffffffffffffffffffffffffffff168152602001908152602001600020546040518085815260200180602001848152602001838152602001828103825285818151815260200191508051906020019080838360005b83811015611c2e578082015181840152602081019050611c13565b50505050905090810190601f168015611c5b5780820380516001836020036101000a031916815260200191505b509550505050505060405180910390a243600260008873ffffffffffffffffffffffffffffffffffffffff1673ffffffffffffffffffffffffffffffffffffffff16815260200190815260200160002081905550505050505050565b60008060018387878760405160008152602001604052604051808581526020018460ff1660ff1681526020018381526020018281526020019450505050506020604051602081039080840390855afa158015611d17573d6000803e3d6000fd5b505050602060405103519050611d2c87611272565b73ffffffffffffffffffffffffffffffffffffffff168173ffffffffffffffffffffffffffffffffffffffff16141515611dce576040517f08c379a00000000000000000000000000000000000000000000000000000000081526004018080602001828103825260168152602001807f5369676e6174757265206e6f74206f66206f776e65720000000000000000000081525060200191505060405180910390fd5b600360008273ffffffffffffffffffffffffffffffffffffffff1673ffffffffffffffffffffffffffffffffffffffff168152602001908152602001600020600081548092919060010191905055508091505095945050505050565b8484611e3582611272565b73ffffffffffffffffffffffffffffffffffffffff168173ffffffffffffffffffffffffffffffffffffffff16141515611ed7576040517f08c379a00000000000000000000000000000000000000000000000000000000081526004018080602001828103825260128152602001807f6163746f72206973206e6f74206f776e6572000000000000000000000000000081525060200191505060405180910390fd5b8673ffffffffffffffffffffffffffffffffffffffff167f18ab6b2ae3d64306c00ce663125f2bd680e441a098de1635bd7ad8b0d44965e48686864201600260008d73ffffffffffffffffffffffffffffffffffffffff1673ffffffffffffffffffffffffffffffffffffffff168152602001908152602001600020546040518085815260200180602001848152602001838152602001828103825285818151815260200191508051906020019080838360005b83811015611fa6578082015181840152602081019050611f8b565b50505050905090810190601f168015611fd35780820380516001836020036101000a031916815260200191505b509550505050505060405180910390a243600260008973ffffffffffffffffffffffffffffffffffffffff1673ffffffffffffffffffffffffffffffffffffffff1681526020019081526020016000208190555050505050505050565b828261203b82611272565b73ffffffffffffffffffffffffffffffffffffffff168173ffffffffffffffffffffffffffffffffffffffff161415156120dd576040517f08c379a00000000000000000000000000000000000000000000000000000000081526004018080602001828103825260128152602001807f6163746f72206973206e6f74206f776e6572000000000000000000000000000081525060200191505060405180910390fd5b826000808773ffffffffffffffffffffffffffffffffffffffff1673ffffffffffffffffffffffffffffffffffffffff16815260200190815260200160002060006101000a81548173ffffffffffffffffffffffffffffffffffffffff021916908373ffffffffffffffffffffffffffffffffffffffff1602179055508473ffffffffffffffffffffffffffffffffffffffff167f38a5a6e68f30ed1ab45860a4afb34bcb2fc00f22ca462d249b8a8d40cda6f7a384600260008973ffffffffffffffffffffffffffffffffffffffff1673ffffffffffffffffffffffffffffffffffffffff16815260200190815260200160002054604051808373ffffffffffffffffffffffffffffffffffffffff1673ffffffffffffffffffffffffffffffffffffffff1681526020018281526020019250505060405180910390a243600260008773ffffffffffffffffffffffffffffffffffffffff1673ffffffffffffffffffffffffffffffffffffffff168152602001908152602001600020819055505050505050565b838361227182611272565b73ffffffffffffffffffffffffffffffffffffffff168173ffffffffffffffffffffffffffffffffffffffff16141515612313576040517f08c379a00000000000000000000000000000000000000000000000000000000081526004018080602001828103825260128152602001807f6163746f72206973206e6f74206f776e6572000000000000000000000000000081525060200191505060405180910390fd5b42600160008873ffffffffffffffffffffffffffffffffffffffff1673ffffffffffffffffffffffffffffffffffffffff1681526020019081526020016000206000866040516020018082815260200191505060405160208183030381529060405280519060200120815260200190815260200160002060008573ffffffffffffffffffffffffffffffffffffffff1673ffffffffffffffffffffffffffffffffffffffff168152602001908152602001600020819055508573ffffffffffffffffffffffffffffffffffffffff167f5a5084339536bcab65f20799fcc58724588145ca054bd2be626174b27ba156f7858542600260008c73ffffffffffffffffffffffffffffffffffffffff1673ffffffffffffffffffffffffffffffffffffffff16815260200190815260200160002054604051808581526020018473ffffffffffffffffffffffffffffffffffffffff1673ffffffffffffffffffffffffffffffffffffffff16815260200183815260200182815260200194505050505060405180910390a243600260008873ffffffffffffffffffffffffffffffffffffffff1673ffffffffffffffffffffffffffffffffffffffff16815260200190815260200160002081905550505050505050565b84846124f382611272565b73ffffffffffffffffffffffffffffffffffffffff168173ffffffffffffffffffffffffffffffffffffffff16141515612595576040517f08c379a00000000000000000000000000000000000000000000000000000000081526004018080602001828103825260128152602001807f6163746f72206973206e6f74206f776e6572000000000000000000000000000081525060200191505060405180910390fd5b824201600160008973ffffffffffffffffffffffffffffffffffffffff1673ffffffffffffffffffffffffffffffffffffffff1681526020019081526020016000206000876040516020018082815260200191505060405160208183030381529060405280519060200120815260200190815260200160002060008673ffffffffffffffffffffffffffffffffffffffff1673ffffffffffffffffffffffffffffffffffffffff168152602001908152602001600020819055508673ffffffffffffffffffffffffffffffffffffffff167f5a5084339536bcab65f20799fcc58724588145ca054bd2be626174b27ba156f78686864201600260008d73ffffffffffffffffffffffffffffffffffffffff1673ffffffffffffffffffffffffffffffffffffffff16815260200190815260200160002054604051808581526020018473ffffffffffffffffffffffffffffffffffffffff1673ffffffffffffffffffffffffffffffffffffffff16815260200183815260200182815260200194505050505060405180910390a243600260008973ffffffffffffffffffffffffffffffffffffffff1673ffffffffffffffffffffffffffffffffffffffff168152602001908152602001600020819055505050505050505056fea165627a7a723058208b629c8c5e5d47f83d210027774798f25f583ae7b0584e7db6136c110a97f6a20029",
  "source": "pragma solidity ^0.5.0;\n\ncontract EthereumDIDRegistry {\n\n    mapping(address => address) public owners;\n    mapping(address => mapping(bytes32 => mapping(address => uint))) public delegates;\n    mapping(address => uint) public changed;\n    mapping(address => uint) public nonce;\n\n    modifier onlyOwner(address identity, address actor) {\n        require (actor == identityOwner(identity),\"actor is not owner\");\n        _;\n    }\n\n    event DIDOwnerChanged(\n        address indexed identity,\n        address owner,\n        uint previousChange\n    );\n\n    event DIDDelegateChanged(\n        address indexed identity,\n        bytes32 delegateType,\n        address delegate,\n        uint validTo,\n        uint previousChange\n    );\n\n    event DIDAttributeChanged(\n        address indexed identity,\n        bytes32 name,\n        bytes value,\n        uint validTo,\n        uint previousChange\n    );\n\n    function identityOwner(address identity) public view returns(address) {\n        address owner = owners[identity];\n        if (owner != address(0)) {\n            return owner;\n        }\n        return identity;\n    }\n\n    function checkSignature(address identity, uint8 sigV, bytes32 sigR, bytes32 sigS, bytes32 hash) internal returns(address) {\n        address signer = ecrecover(hash, sigV, sigR, sigS);\n        require(signer == identityOwner(identity),\"Signature not of owner\");\n        nonce[signer]++;\n        return signer;\n    }\n\n    function validDelegate(address identity, bytes32 delegateType, address delegate) public view returns(bool) {\n        uint validity = delegates[identity][keccak256(abi.encodePacked(delegateType))][delegate];\n        return (validity > now);\n    }\n\n    function changeOwner(address identity, address actor, address newOwner) internal onlyOwner(identity, actor) {\n        owners[identity] = newOwner;\n        emit DIDOwnerChanged(identity, newOwner, changed[identity]);\n        changed[identity] = block.number;\n    }\n\n    function changeOwner(address identity, address newOwner) public {\n        changeOwner(identity, msg.sender, newOwner);\n    }\n\n    /**\n    // 1: byte(0x19) - the initial 0x19 byte\n    // 2: byte(0) - the version byte as defined in EIP 191, we use 0\n    // 3: this - the validator address in our case this contract address\n    // 4: followed by nonce, identity address, method called, method params\n     */\n    function changeOwnerSigned(address identity, uint8 sigV, bytes32 sigR, bytes32 sigS, address newOwner) public {\n        bytes32 hash = keccak256(abi.encodePacked(byte(0x19), byte(0), this, nonce[identityOwner(identity)], identity, \"changeOwner\", newOwner));\n        changeOwner(identity, checkSignature(identity, sigV, sigR, sigS, hash), newOwner);\n    }\n\n    function addDelegate(address identity, address actor, bytes32 delegateType,\n     address delegate, uint validity) internal onlyOwner(identity, actor) {\n        delegates[identity][keccak256(abi.encodePacked(delegateType))][delegate] = now + validity;\n        emit DIDDelegateChanged(identity, delegateType, delegate, now + validity, changed[identity]);\n        changed[identity] = block.number;\n    }\n\n    function addDelegate(address identity, bytes32 delegateType, address delegate, uint validity) public {\n        addDelegate(identity, msg.sender, delegateType, delegate, validity);\n    }\n\n    function addDelegateSigned(address identity, uint8 sigV, bytes32 sigR,\n    bytes32 sigS, bytes32 delegateType, address delegate, uint validity) public {\n        bytes32 hash = keccak256(abi.encodePacked(byte(0x19), byte(0),\n        this, nonce[identityOwner(identity)], identity, \"addDelegate\", delegateType, delegate, validity));\n        addDelegate(identity, checkSignature(identity, sigV, sigR, sigS, hash), delegateType, delegate, validity);\n    }\n\n    function revokeDelegate(address identity, address actor, bytes32 delegateType, address delegate) internal onlyOwner(identity, actor) {\n        delegates[identity][keccak256(abi.encodePacked(delegateType))][delegate] = now;\n        emit DIDDelegateChanged(identity, delegateType, delegate, now, changed[identity]);\n        changed[identity] = block.number;\n    }\n\n    function revokeDelegate(address identity, bytes32 delegateType, address delegate) public {\n        revokeDelegate(identity, msg.sender, delegateType, delegate);\n    }\n\n    function revokeDelegateSigned(address identity, uint8 sigV, bytes32 sigR, bytes32 sigS, bytes32 delegateType, address delegate) public {\n        bytes32 hash = keccak256(abi.encodePacked(byte(0x19), byte(0),\n        this, nonce[identityOwner(identity)], identity, \"revokeDelegate\",\n        delegateType, delegate));\n        revokeDelegate(identity, checkSignature(identity, sigV, sigR, sigS, hash), delegateType, delegate);\n    }\n\n    function setAttribute(address identity, address actor, bytes32 name,\n    bytes memory value, uint validity ) internal onlyOwner(identity, actor) {\n        emit DIDAttributeChanged(identity, name, value, now + validity,\n         changed[identity]);\n        changed[identity] = block.number;\n    }\n\n    function setAttribute(address identity, bytes32 name, bytes memory value, uint validity) public {\n        setAttribute(identity, msg.sender, name, value, validity);\n    }\n\n    function setAttributeSigned(address identity, uint8 sigV, bytes32 sigR, bytes32 sigS,\n     bytes32 name, bytes memory value, uint validity) public {\n        bytes32 hash = keccak256(abi.encodePacked(byte(0x19), byte(0),\n        this, nonce[identityOwner(identity)], identity, \"setAttribute\", name, value, validity));\n        setAttribute(identity, checkSignature(identity, sigV, sigR, sigS, hash), name, value, validity);\n    }\n\n    function revokeAttribute(address identity, address actor, bytes32 name, bytes memory value ) internal onlyOwner(identity, actor) {\n        emit DIDAttributeChanged(identity, name, value, 0, changed[identity]);\n        changed[identity] = block.number;\n    }\n\n    function revokeAttribute(address identity, bytes32 name, bytes memory value) public {\n        revokeAttribute(identity, msg.sender, name, value);\n    }\n\n    function revokeAttributeSigned(address identity, uint8 sigV, bytes32 sigR, bytes32 sigS, bytes32 name, bytes memory value) public {\n        bytes32 hash = keccak256(abi.encodePacked(byte(0x19), byte(0),\n        this, nonce[identityOwner(identity)], identity, \"revokeAttribute\", name, value));\n        revokeAttribute(identity, checkSignature(identity, sigV, sigR, sigS, hash), name, value);\n    }\n\n    function getNonce(address  identity) public view  returns (uint nonceValue) {\n        return nonce[identity];\n       }\n}",
  "sourcePath": "/Users/hitesh/myworkspace/typescript-starters/dns-dapp/contracts/EthereumDIDRegistry.sol",
  "compiler": {
    "name": "solc",
    "version": "0.5.0+commit.1d4f565a.Emscripten.clang"
  },
  "schemaVersion": "3.0.8",
  "updatedAt": "2019-09-14T04:58:10.950Z",
  "devdoc": {
    "methods": {}
  },
  "userdoc": {
    "methods": {
      "changeOwnerSigned(address,uint8,bytes32,bytes32,address)": {
        "notice": "// 1: byte(0x19) - the initial 0x19 byte // 2: byte(0) - the version byte as defined in EIP 191, we use 0 // 3: this - the validator address in our case this contract address // 4: followed by nonce, identity address, method called, method params"
      }
    }
  }
}