{
  "contractName": "Util",
  "abi": [
    {
      "constant": true,
      "inputs": [
        {
          "name": "source",
          "type": "string"
        }
      ],
      "name": "toBytes32",
      "outputs": [
        {
          "name": "",
          "type": "bytes32"
        }
      ],
      "payable": false,
      "stateMutability": "pure",
      "type": "function"
    }
  ],
  "bytecode": "0x6060604052341561000f57600080fd5b6101078061001e6000396000f300606060405260043610603f576000357c0100000000000000000000000000000000000000000000000000000000900463ffffffff16806327df8f2a146044575b600080fd5b3415604e57600080fd5b609c600480803590602001908201803590602001908080601f0160208091040260200160405190810160405280939291908181526020018383808284378201915050505050509190505060ba565b60405180826000191660001916815260200191505060405180910390f35b600060c38260ca565b9050919050565b6000602082015190508090509190505600a165627a7a7230582035c58b1a126a9d498cc12c4a35e4ffb161bc908a222ae8ef0e9c73a18e066f580029",
  "source": "pragma solidity ^0.4.18;\r\n\r\ncontract Util {\r\n  function stringToBytes32(string memory source) internal pure \r\n    returns (bytes32 result)\r\n    {\r\n      assembly {\r\n          result := mload(add(source, 32))\r\n      }\r\n      return result;\r\n    }\r\n  \r\n  // convert string to Bytes32  \r\n  function toBytes32(string memory source) public pure returns (bytes32) {\r\n    return stringToBytes32(source);\r\n  }\r\n  \r\n}  ",
  "sourcePath": "C:\\truffle\\truffle_angular\\contracts\\Util.sol",
  "compiler": {
    "name": "solc",
    "version": "0.4.19+commit.c4cbbb05.Emscripten.clang"
  },
  "schemaVersion": "1.0.1",
  "updatedAt": "2018-02-10T17:09:11.017Z"
}