{
  "contractName": "Util",
  "abi": [
    {
      "constant": true,
      "inputs": [
        {
          "name": "source",
          "type": "string"
        }
      ],
      "name": "toBytes32",
      "outputs": [
        {
          "name": "",
          "type": "bytes32"
        }
      ],
      "payable": false,
      "stateMutability": "pure",
      "type": "function"
    }
  ],
  "bytecode": "0x608060405234801561001057600080fd5b50610113806100206000396000f300608060405260043610603f576000357c0100000000000000000000000000000000000000000000000000000000900463ffffffff16806327df8f2a146044575b600080fd5b348015604f57600080fd5b5060a8600480360381019080803590602001908201803590602001908080601f016020809104026020016040519081016040528093929190818152602001838380828437820191505050505050919291929050505060c6565b60405180826000191660001916815260200191505060405180910390f35b600060cf8260d6565b9050919050565b6000602082015190508090509190505600a165627a7a72305820d1f4c556623aa45e98b827b9844527935a4d6171359050262b4859657371d4840029",
  "source": "pragma solidity ^0.4.18;\n\ncontract Util {\n  function stringToBytes32(string memory source) internal pure \n    returns (bytes32 result)\n    {\n      assembly {\n          result := mload(add(source, 32))\n      }\n      return result;\n    }\n  \n  // convert string to Bytes32  \n  function toBytes32(string memory source) public pure returns (bytes32) {\n    return stringToBytes32(source);\n  }\n  \n}  ",
  "sourcePath": "/Users/hitesh/myworkspace/dump/dns-dapp/contracts/Util.sol",
  "compiler": {
    "name": "solc",
    "version": "0.4.25+commit.59dbf8f1.Emscripten.clang"
  },
  "schemaVersion": "2.0.2",
  "updatedAt": "2019-01-12T10:24:30.922Z"
}